{
  "contractName": "MyUser",
  "abi": [
    {
      "inputs": [
        {
          "internalType": "address",
          "name": "a",
          "type": "address"
        }
      ],
      "payable": false,
      "stateMutability": "nonpayable",
      "type": "constructor"
    },
    {
      "anonymous": false,
      "inputs": [
        {
          "indexed": true,
          "internalType": "address",
          "name": "previousOwner",
          "type": "address"
        },
        {
          "indexed": true,
          "internalType": "address",
          "name": "newOwner",
          "type": "address"
        }
      ],
      "name": "OwnershipTransferred",
      "type": "event"
    },
    {
      "constant": true,
      "inputs": [],
      "name": "isOwner",
      "outputs": [
        {
          "internalType": "bool",
          "name": "",
          "type": "bool"
        }
      ],
      "payable": false,
      "stateMutability": "view",
      "type": "function"
    },
    {
      "constant": true,
      "inputs": [
        {
          "internalType": "uint256",
          "name": "",
          "type": "uint256"
        }
      ],
      "name": "marketProperties",
      "outputs": [
        {
          "internalType": "string",
          "name": "property_name",
          "type": "string"
        },
        {
          "internalType": "string",
          "name": "property_address",
          "type": "string"
        },
        {
          "internalType": "string",
          "name": "city",
          "type": "string"
        },
        {
          "internalType": "string",
          "name": "state",
          "type": "string"
        },
        {
          "internalType": "uint256",
          "name": "postal_code",
          "type": "uint256"
        }
      ],
      "payable": false,
      "stateMutability": "view",
      "type": "function"
    },
    {
      "constant": true,
      "inputs": [],
      "name": "owner",
      "outputs": [
        {
          "internalType": "address",
          "name": "",
          "type": "address"
        }
      ],
      "payable": false,
      "stateMutability": "view",
      "type": "function"
    },
    {
      "constant": false,
      "inputs": [],
      "name": "renounceOwnership",
      "outputs": [],
      "payable": false,
      "stateMutability": "nonpayable",
      "type": "function"
    },
    {
      "constant": false,
      "inputs": [
        {
          "internalType": "address",
          "name": "newOwner",
          "type": "address"
        }
      ],
      "name": "transferOwnership",
      "outputs": [],
      "payable": false,
      "stateMutability": "nonpayable",
      "type": "function"
    },
    {
      "constant": false,
      "inputs": [],
      "name": "tryAdd",
      "outputs": [
        {
          "internalType": "address",
          "name": "",
          "type": "address"
        }
      ],
      "payable": false,
      "stateMutability": "nonpayable",
      "type": "function"
    },
    {
      "constant": false,
      "inputs": [
        {
          "internalType": "string",
          "name": "_property_name",
          "type": "string"
        },
        {
          "internalType": "string",
          "name": "_property_address",
          "type": "string"
        },
        {
          "internalType": "string",
          "name": "_city",
          "type": "string"
        },
        {
          "internalType": "string",
          "name": "_state",
          "type": "string"
        },
        {
          "internalType": "uint256",
          "name": "_postal_code",
          "type": "uint256"
        },
        {
          "internalType": "uint256",
          "name": "_price",
          "type": "uint256"
        }
      ],
      "name": "mintPropety",
      "outputs": [],
      "payable": false,
      "stateMutability": "nonpayable",
      "type": "function"
    },
    {
      "constant": true,
      "inputs": [],
      "name": "propertyForSaleN",
      "outputs": [
        {
          "internalType": "uint256",
          "name": "",
          "type": "uint256"
        }
      ],
      "payable": false,
      "stateMutability": "view",
      "type": "function"
    },
    {
      "constant": false,
      "inputs": [
        {
          "internalType": "uint256",
          "name": "id",
          "type": "uint256"
        }
      ],
      "name": "ownerOf",
      "outputs": [
        {
          "internalType": "address",
          "name": "",
          "type": "address"
        }
      ],
      "payable": false,
      "stateMutability": "nonpayable",
      "type": "function"
    },
    {
      "constant": false,
      "inputs": [
        {
          "internalType": "uint256",
          "name": "id",
          "type": "uint256"
        }
      ],
      "name": "propertiesForSale",
      "outputs": [
        {
          "internalType": "uint256",
          "name": "",
          "type": "uint256"
        }
      ],
      "payable": false,
      "stateMutability": "nonpayable",
      "type": "function"
    }
  ],
  "bytecode": "0x608060405234801561001057600080fd5b506040516113fa3803806113fa8339818101604052602081101561003357600080fd5b8101908080519060200190929190505050600061005461013960201b60201c565b9050806000806101000a81548173ffffffffffffffffffffffffffffffffffffffff021916908373ffffffffffffffffffffffffffffffffffffffff1602179055508073ffffffffffffffffffffffffffffffffffffffff16600073ffffffffffffffffffffffffffffffffffffffff167f8be0079c531659141344cd1fd0a4f28419497f9722a3daafe3b4186f6b6457e060405160405180910390a35080600160006101000a81548173ffffffffffffffffffffffffffffffffffffffff021916908373ffffffffffffffffffffffffffffffffffffffff16021790555050610141565b600033905090565b6112aa806101506000396000f3fe608060405234801561001057600080fd5b506004361061009e5760003560e01c8063715018a611610066578063715018a6146103ad57806380ced0c9146103b75780638da5cb5b1461064b5780638f32d59b14610695578063f2fde38b146106b75761009e565b806309c60e2b146100a357806330ec9147146100ed57806331ddb892146102df5780636352211e146102fd5780636af562e81461036b575b600080fd5b6100ab6106fb565b604051808273ffffffffffffffffffffffffffffffffffffffff1673ffffffffffffffffffffffffffffffffffffffff16815260200191505060405180910390f35b6101196004803603602081101561010357600080fd5b8101908080359060200190929190505050610703565b604051808060200180602001806020018060200186815260200185810385528a818151815260200191508051906020019080838360005b8381101561016b578082015181840152602081019050610150565b50505050905090810190601f1680156101985780820380516001836020036101000a031916815260200191505b50858103845289818151815260200191508051906020019080838360005b838110156101d15780820151818401526020810190506101b6565b50505050905090810190601f1680156101fe5780820380516001836020036101000a031916815260200191505b50858103835288818151815260200191508051906020019080838360005b8381101561023757808201518184015260208101905061021c565b50505050905090810190601f1680156102645780820380516001836020036101000a031916815260200191505b50858103825287818151815260200191508051906020019080838360005b8381101561029d578082015181840152602081019050610282565b50505050905090810190601f1680156102ca5780820380516001836020036101000a031916815260200191505b50995050505050505050505060405180910390f35b6102e76109a6565b6040518082815260200191505060405180910390f35b6103296004803603602081101561031357600080fd5b8101908080359060200190929190505050610a50565b604051808273ffffffffffffffffffffffffffffffffffffffff1673ffffffffffffffffffffffffffffffffffffffff16815260200191505060405180910390f35b6103976004803603602081101561038157600080fd5b8101908080359060200190929190505050610b07565b6040518082815260200191505060405180910390f35b6103b5610bbe565b005b610649600480360360c08110156103cd57600080fd5b81019080803590602001906401000000008111156103ea57600080fd5b8201836020820111156103fc57600080fd5b8035906020019184600183028401116401000000008311171561041e57600080fd5b91908080601f016020809104026020016040519081016040528093929190818152602001838380828437600081840152601f19601f8201169050808301925050505050505091929192908035906020019064010000000081111561048157600080fd5b82018360208201111561049357600080fd5b803590602001918460018302840111640100000000831117156104b557600080fd5b91908080601f016020809104026020016040519081016040528093929190818152602001838380828437600081840152601f19601f8201169050808301925050505050505091929192908035906020019064010000000081111561051857600080fd5b82018360208201111561052a57600080fd5b8035906020019184600183028401116401000000008311171561054c57600080fd5b91908080601f016020809104026020016040519081016040528093929190818152602001838380828437600081840152601f19601f820116905080830192505050505050509192919290803590602001906401000000008111156105af57600080fd5b8201836020820111156105c157600080fd5b803590602001918460018302840111640100000000831117156105e357600080fd5b91908080601f016020809104026020016040519081016040528093929190818152602001838380828437600081840152601f19601f8201169050808301925050505050505091929192908035906020019092919080359060200190929190505050610cf7565b005b610653610ff6565b604051808273ffffffffffffffffffffffffffffffffffffffff1673ffffffffffffffffffffffffffffffffffffffff16815260200191505060405180910390f35b61069d61101f565b604051808215151515815260200191505060405180910390f35b6106f9600480360360208110156106cd57600080fd5b81019080803573ffffffffffffffffffffffffffffffffffffffff16906020019092919050505061107d565b005b600033905090565b6002818154811061071057fe5b9060005260206000209060050201600091509050806000018054600181600116156101000203166002900480601f0160208091040260200160405190810160405280929190818152602001828054600181600116156101000203166002900480156107bc5780601f10610791576101008083540402835291602001916107bc565b820191906000526020600020905b81548152906001019060200180831161079f57829003601f168201915b505050505090806001018054600181600116156101000203166002900480601f01602080910402602001604051908101604052809291908181526020018280546001816001161561010002031660029004801561085a5780601f1061082f5761010080835404028352916020019161085a565b820191906000526020600020905b81548152906001019060200180831161083d57829003601f168201915b505050505090806002018054600181600116156101000203166002900480601f0160208091040260200160405190810160405280929190818152602001828054600181600116156101000203166002900480156108f85780601f106108cd576101008083540402835291602001916108f8565b820191906000526020600020905b8154815290600101906020018083116108db57829003601f168201915b505050505090806003018054600181600116156101000203166002900480601f0160208091040260200160405190810160405280929190818152602001828054600181600116156101000203166002900480156109965780601f1061096b57610100808354040283529160200191610996565b820191906000526020600020905b81548152906001019060200180831161097957829003601f168201915b5050505050908060040154905085565b6000600160009054906101000a900473ffffffffffffffffffffffffffffffffffffffff1673ffffffffffffffffffffffffffffffffffffffff16630194b7a46040518163ffffffff1660e01b815260040160206040518083038186803b158015610a1057600080fd5b505afa158015610a24573d6000803e3d6000fd5b505050506040513d6020811015610a3a57600080fd5b8101908080519060200190929190505050905090565b6000600160009054906101000a900473ffffffffffffffffffffffffffffffffffffffff1673ffffffffffffffffffffffffffffffffffffffff16636352211e836040518263ffffffff1660e01b81526004018082815260200191505060206040518083038186803b158015610ac557600080fd5b505afa158015610ad9573d6000803e3d6000fd5b505050506040513d6020811015610aef57600080fd5b81019080805190602001909291905050509050919050565b6000600160009054906101000a900473ffffffffffffffffffffffffffffffffffffffff1673ffffffffffffffffffffffffffffffffffffffff16636af562e8836040518263ffffffff1660e01b81526004018082815260200191505060206040518083038186803b158015610b7c57600080fd5b505afa158015610b90573d6000803e3d6000fd5b505050506040513d6020811015610ba657600080fd5b81019080805190602001909291905050509050919050565b610bc661101f565b610c38576040517f08c379a00000000000000000000000000000000000000000000000000000000081526004018080602001828103825260208152602001807f4f776e61626c653a2063616c6c6572206973206e6f7420746865206f776e657281525060200191505060405180910390fd5b600073ffffffffffffffffffffffffffffffffffffffff166000809054906101000a900473ffffffffffffffffffffffffffffffffffffffff1673ffffffffffffffffffffffffffffffffffffffff167f8be0079c531659141344cd1fd0a4f28419497f9722a3daafe3b4186f6b6457e060405160405180910390a360008060006101000a81548173ffffffffffffffffffffffffffffffffffffffff021916908373ffffffffffffffffffffffffffffffffffffffff160217905550565b610cff61101f565b610d71576040517f08c379a00000000000000000000000000000000000000000000000000000000081526004018080602001828103825260208152602001807f4f776e61626c653a2063616c6c6572206973206e6f7420746865206f776e657281525060200191505060405180910390fd5b600160009054906101000a900473ffffffffffffffffffffffffffffffffffffffff1673ffffffffffffffffffffffffffffffffffffffff1663e450cd03878787878787306040518863ffffffff1660e01b815260040180806020018060200180602001806020018881526020018781526020018673ffffffffffffffffffffffffffffffffffffffff1673ffffffffffffffffffffffffffffffffffffffff16815260200185810385528c818151815260200191508051906020019080838360005b83811015610e4f578082015181840152602081019050610e34565b50505050905090810190601f168015610e7c5780820380516001836020036101000a031916815260200191505b5085810384528b818151815260200191508051906020019080838360005b83811015610eb5578082015181840152602081019050610e9a565b50505050905090810190601f168015610ee25780820380516001836020036101000a031916815260200191505b5085810383528a818151815260200191508051906020019080838360005b83811015610f1b578082015181840152602081019050610f00565b50505050905090810190601f168015610f485780820380516001836020036101000a031916815260200191505b50858103825289818151815260200191508051906020019080838360005b83811015610f81578082015181840152602081019050610f66565b50505050905090810190601f168015610fae5780820380516001836020036101000a031916815260200191505b509b505050505050505050505050600060405180830381600087803b158015610fd657600080fd5b505af1158015610fea573d6000803e3d6000fd5b50505050505050505050565b60008060009054906101000a900473ffffffffffffffffffffffffffffffffffffffff16905090565b60008060009054906101000a900473ffffffffffffffffffffffffffffffffffffffff1673ffffffffffffffffffffffffffffffffffffffff16611061611103565b73ffffffffffffffffffffffffffffffffffffffff1614905090565b61108561101f565b6110f7576040517f08c379a00000000000000000000000000000000000000000000000000000000081526004018080602001828103825260208152602001807f4f776e61626c653a2063616c6c6572206973206e6f7420746865206f776e657281525060200191505060405180910390fd5b6111008161110b565b50565b600033905090565b600073ffffffffffffffffffffffffffffffffffffffff168173ffffffffffffffffffffffffffffffffffffffff161415611191576040517f08c379a00000000000000000000000000000000000000000000000000000000081526004018080602001828103825260268152602001806112506026913960400191505060405180910390fd5b8073ffffffffffffffffffffffffffffffffffffffff166000809054906101000a900473ffffffffffffffffffffffffffffffffffffffff1673ffffffffffffffffffffffffffffffffffffffff167f8be0079c531659141344cd1fd0a4f28419497f9722a3daafe3b4186f6b6457e060405160405180910390a3806000806101000a81548173ffffffffffffffffffffffffffffffffffffffff021916908373ffffffffffffffffffffffffffffffffffffffff1602179055505056fe4f776e61626c653a206e6577206f776e657220697320746865207a65726f2061646472657373a265627a7a72315820bf4526ff4eaa9860416966302c6e2d330c67c38dc7347c80f6277eac15822ff964736f6c634300050c0032",
  "source": "pragma solidity ^0.5.0;\r\nimport \"./ERC721Full.sol\";\r\n// import 'node_modules/@openzeppelin/contracts/ownership/Ownable.sol';\r\n// import \"https://github.com/OpenZeppelin/openzeppelin-contracts/blob/v2.4.0/contracts/ownership/Ownable.sol\";\r\nimport 'openzeppelin-solidity/contracts/ownership/Ownable.sol';\r\n\r\n\r\n\r\n\r\ncontract PropertyToken is ERC721Full,Ownable {\r\n\r\nstruct Property {\r\n         // IPFS Hash\r\n        string property_name;\r\n        string property_address;\r\n        string city;\r\n        string state;\r\n        uint postal_code;\r\n    }\r\n    // string[] public physical_address;\r\n    // mapping(string => bool) _propertyExists;\r\n    // mapping(uint => address) _propertyIndexToOwner;\r\n    // mapping(string => uint) _propertyToIndex;\r\n    mapping (uint256 => address) internal tokenApprovals;\r\n    Property[] public properties;\r\n    mapping(uint => uint) public propertyPrices;\r\n    uint[] public propertiesForSale;\r\n    mapping(uint => uint) public indexes; //propertyId -> propertiesForSale\r\n\r\n\r\n    constructor() ERC721Full(\"Property\",\"PROPERTY\") public    {\r\n    }\r\n\r\n    // function mint(string memory _physical_address) public {\r\n    //     require(!_propertyExists[_physical_address]);\r\n    //     uint _id = physical_address.push(_physical_address);\r\n    //     _mint(msg.sender, _id);\r\n    //     _propertyExists[_physical_address] = true;\r\n    //     _propertyIndexToOwner[_id] = msg.sender;\r\n    //     _propertyToIndex[_physical_address] = _id;\r\n    // }\r\n\r\n    function mint( string memory _property_name,\r\n                  string memory _property_address, string memory _city,\r\n                  string memory _state,uint  _postal_code, uint _price, address _owner) public onlyOwner {\r\n\r\n            Property memory p = Property({\r\n                 property_name : _property_name,\r\n                 property_address : _property_address,\r\n                 city : _city,\r\n                 state : _state,\r\n                 postal_code : _postal_code\r\n            });\r\n            uint propertyId = properties.push(p) - 1;\r\n            propertyPrices[propertyId] = _price;\r\n            propertiesForSale.push(propertyId);\r\n            indexes[propertyId] = propertiesForSale.length - 1;\r\n            // _mint is a function part of ERC721Token that generates the NFT\r\n            // The contract will own the newly minted tokens\r\n            _mint(_owner, propertyId);\r\n    }\r\n\r\n  /// @notice Get number of spaceships for sale\r\n    function propertiesForSaleN() public view returns(uint) {\r\n        return propertiesForSale.length;\r\n    }\r\n\r\n    /// @notice Buy property\r\n    /// @param _propertyId TokenId\r\n\r\n    function buyProperty(uint _propertyId) public payable{\r\n        // You can only buy the spaceships owned by this contract\r\n        require(ownerOf(_propertyId) == address(this),\r\n        \"Sender not authorized\");\r\n\r\n        // Value sent should be at least the spaceship price\r\n        require(msg.value >= propertyPrices[_propertyId],\r\n        \"Value less than selling price\");\r\n\r\n        // We approve the transfer directly to avoid creating two trx\r\n        // then we send the token to the sender\r\n        // tokenApprovals[_propertyId] = msg.sender;\r\n        transferFrom(address(this), msg.sender, _propertyId);\r\n        // address payable rec = 0x84753F397F925ABA6d00222C51e8F6c6b81359E5;\r\n        // rec.transfer(msg.value);\r\n        // Delete the token from the list of tokens for sale\r\n        // uint256 replacer = propertiesForSale[propertiesForSale.length - 1];\r\n        // uint256 pos = indexes[_propertyId];\r\n        // propertiesForSale[pos] = replacer;\r\n        // indexes[replacer] = pos;\r\n        // propertiesForSale.length--;\r\n        // uint refund = msg.value - propertyPrices[_propertyId];\r\n        // if (refund > 0)\r\n        //     msg.sender.transfer(refund);\r\n    }\r\n\r\n    /// @notice Withdraw sales balance\r\n    function withdrawBalance() public onlyOwner {\r\n        msg.sender.transfer(address(this).balance);\r\n    }\r\n    \r\n    function transferMoney() public payable  {\r\n        // rec.transfer(msg.value);\r\n        address payable rec = 0x84753F397F925ABA6d00222C51e8F6c6b81359E5;\r\n        rec.transfer(msg.value);\r\n    }\r\n    \r\n    /// @notice Get Metadata URI\r\n    /// @param _propertyId TokenID\r\n    /// @return IPFS URL of the metadata\r\n    // function tokenURI(uint256 _propertyId) public payable returns (string memory) {\r\n    //     Property storage s = properties[_propertyId];\r\n    //     return strConcat(\"https://ipfs.io/ipfs/\", string(s.metadataHash));\r\n    // }\r\n\r\n    // /// @notice Concatenate strings\r\n    // /// @param _a First string\r\n    // /// @param _b Second string\r\n    // /// @return _a+_b\r\n    // function strConcat(string memory _a, string memory _b)  private returns (string memory) {\r\n    //     bytes memory _ba = bytes(_a);\r\n    //     bytes memory _bb = bytes(_b);\r\n    //     string memory ab = new string(_ba.length + _bb.length);\r\n    //     bytes memory bab = bytes(ab);\r\n    //     uint k = 0;\r\n\r\n    //     for (uint i = 0; i < _ba.length; i++)\r\n    //         bab[k++] = _ba[i];\r\n\r\n    //     for (uint i = 0; i < _bb.length; i++)\r\n    //         bab[k++] = _bb[i];\r\n\r\n    //     return string(bab);\r\n    // }\r\n\r\n    // function transfer(string memory _physical_address,address reciever) public payable returns (address) {\r\n    //     // address a = 0x84753F397F925ABA6d00222C51e8F6c6b81359E5;\r\n    //     // approve(a, 1);\r\n    //     // // _transferFrom(msg.sender, a, 1);\r\n    //     // // _propertyIndexToOwner[1] = a;\r\n    //     uint id = _propertyToIndex[_physical_address];\r\n    //     safeTransferFrom(msg.sender,reciever,id);\r\n    //     // return (msg.sender, balanceOf(msg.sender));\r\n    //     _propertyIndexToOwner[id] = reciever;\r\n    //     // uint256[] memory h = _tokensOfOwner(msg.sender);\r\n    //     return _propertyIndexToOwner[id];\r\n    // }\r\n\r\n    // function tokensOfOwner(address _owner) external view returns(uint256[] memory ownerTokens) {\r\n    //     uint256 tokenCount = balanceOf(_owner);\r\n\r\n    //     if (tokenCount == 0) {\r\n    //         // Return an empty array\r\n    //         return new uint256[](0);\r\n    //     } else {\r\n    //         uint256[] memory result = new uint256[](tokenCount);\r\n    //         uint256 total = totalSupply();\r\n    //         uint256 resultIndex = 0;\r\n\r\n    //         // We count on the fact that all proprty have IDs starting at 1 and increasing\r\n    //         // sequentially up to the count.\r\n    //         uint256 propertyId;\r\n\r\n    //         for (propertyId = 1; propertyId <= total; propertyId++) {\r\n    //             if (_propertyIndexToOwner[propertyId] == _owner) {\r\n    //                 result[resultIndex] = propertyId;\r\n    //                 resultIndex++;\r\n    //             }\r\n    //         }\r\n\r\n    //         return result;\r\n    //     }\r\n    // }\r\n    // function senderAddres() public view returns(uint256) {\r\n    //     uint256 tokenCount = balanceOf(msg.sender);\r\n\r\n    //     return tokenCount;\r\n\r\n    // }\r\n\r\n}\r\ncontract MyUser is Ownable {\r\n\r\n    PropertyToken pt;\r\n\r\n    constructor (address a) public\r\n    {\r\n        pt = PropertyToken(a);\r\n    }\r\n\r\n    struct Property {\r\n         // IPFS Hash\r\n        string property_name;\r\n        string property_address;\r\n        string city;\r\n        string state;\r\n        uint postal_code;\r\n    }\r\n    Property[] public marketProperties;\r\n\r\n    function tryAdd() public returns (address)\r\n    {\r\n        return msg.sender;\r\n    }\r\n\r\n    function mintPropety( string memory _property_name,\r\n                  string memory _property_address, string memory _city,\r\n                  string memory _state,uint  _postal_code, uint _price) public onlyOwner {\r\n\r\n        pt.mint(_property_name, _property_address, _city, _state, _postal_code, _price, address(this));\r\n    }\r\n    function propertyForSaleN()  public view returns(uint)\r\n    {\r\n        return pt.propertiesForSaleN();\r\n    }\r\n    function ownerOf(uint id) public returns(address)\r\n    {\r\n        return pt.ownerOf(id);\r\n    }\r\n    function propertiesForSale(uint id) public returns (uint)\r\n    {\r\n        return pt.propertiesForSale(id);\r\n    }\r\n    // function getProperties(uint id) public returns(Property memory)\r\n    // {\r\n    //     marketProperties = pt.properties(id);\r\n    // }\r\n}",
  "sourcePath": "E:/Major Project/starter_kit/src/contracts/PropertyToken.sol",
  "compiler": {
    "name": "solc",
    "version": "0.5.12+commit.7709ece9.Emscripten.clang"
  },
  "schemaVersion": "3.0.20",
  "updatedAt": "2020-03-05T14:29:48.851Z",
  "devdoc": {
    "methods": {
      "isOwner()": {
        "details": "Returns true if the caller is the current owner."
      },
      "owner()": {
        "details": "Returns the address of the current owner."
      },
      "renounceOwnership()": {
        "details": "Leaves the contract without owner. It will not be possible to call `onlyOwner` functions anymore. Can only be called by the current owner.     * NOTE: Renouncing ownership will leave the contract without an owner, thereby removing any functionality that is only available to the owner."
      },
      "transferOwnership(address)": {
        "details": "Transfers ownership of the contract to a new account (`newOwner`). Can only be called by the current owner."
      }
    }
  },
  "userdoc": {
    "methods": {}
  }
}