{
  "contractName": "PropertyToken",
  "abi": [
    {
      "inputs": [],
      "payable": false,
      "stateMutability": "nonpayable",
      "type": "constructor"
    },
    {
      "anonymous": false,
      "inputs": [
        {
          "indexed": true,
          "internalType": "address",
          "name": "owner",
          "type": "address"
        },
        {
          "indexed": true,
          "internalType": "address",
          "name": "approved",
          "type": "address"
        },
        {
          "indexed": true,
          "internalType": "uint256",
          "name": "tokenId",
          "type": "uint256"
        }
      ],
      "name": "Approval",
      "type": "event"
    },
    {
      "anonymous": false,
      "inputs": [
        {
          "indexed": true,
          "internalType": "address",
          "name": "owner",
          "type": "address"
        },
        {
          "indexed": true,
          "internalType": "address",
          "name": "operator",
          "type": "address"
        },
        {
          "indexed": false,
          "internalType": "bool",
          "name": "approved",
          "type": "bool"
        }
      ],
      "name": "ApprovalForAll",
      "type": "event"
    },
    {
      "anonymous": false,
      "inputs": [
        {
          "indexed": true,
          "internalType": "address",
          "name": "previousOwner",
          "type": "address"
        },
        {
          "indexed": true,
          "internalType": "address",
          "name": "newOwner",
          "type": "address"
        }
      ],
      "name": "OwnershipTransferred",
      "type": "event"
    },
    {
      "anonymous": false,
      "inputs": [
        {
          "indexed": true,
          "internalType": "address",
          "name": "from",
          "type": "address"
        },
        {
          "indexed": true,
          "internalType": "address",
          "name": "to",
          "type": "address"
        },
        {
          "indexed": true,
          "internalType": "uint256",
          "name": "tokenId",
          "type": "uint256"
        }
      ],
      "name": "Transfer",
      "type": "event"
    },
    {
      "constant": false,
      "inputs": [
        {
          "internalType": "address",
          "name": "to",
          "type": "address"
        },
        {
          "internalType": "uint256",
          "name": "tokenId",
          "type": "uint256"
        }
      ],
      "name": "approve",
      "outputs": [],
      "payable": false,
      "stateMutability": "nonpayable",
      "type": "function"
    },
    {
      "constant": true,
      "inputs": [
        {
          "internalType": "address",
          "name": "owner",
          "type": "address"
        }
      ],
      "name": "balanceOf",
      "outputs": [
        {
          "internalType": "uint256",
          "name": "",
          "type": "uint256"
        }
      ],
      "payable": false,
      "stateMutability": "view",
      "type": "function"
    },
    {
      "constant": true,
      "inputs": [
        {
          "internalType": "uint256",
          "name": "tokenId",
          "type": "uint256"
        }
      ],
      "name": "getApproved",
      "outputs": [
        {
          "internalType": "address",
          "name": "",
          "type": "address"
        }
      ],
      "payable": false,
      "stateMutability": "view",
      "type": "function"
    },
    {
      "constant": true,
      "inputs": [
        {
          "internalType": "uint256",
          "name": "",
          "type": "uint256"
        }
      ],
      "name": "indexes",
      "outputs": [
        {
          "internalType": "uint256",
          "name": "",
          "type": "uint256"
        }
      ],
      "payable": false,
      "stateMutability": "view",
      "type": "function"
    },
    {
      "constant": true,
      "inputs": [
        {
          "internalType": "address",
          "name": "owner",
          "type": "address"
        },
        {
          "internalType": "address",
          "name": "operator",
          "type": "address"
        }
      ],
      "name": "isApprovedForAll",
      "outputs": [
        {
          "internalType": "bool",
          "name": "",
          "type": "bool"
        }
      ],
      "payable": false,
      "stateMutability": "view",
      "type": "function"
    },
    {
      "constant": true,
      "inputs": [],
      "name": "isOwner",
      "outputs": [
        {
          "internalType": "bool",
          "name": "",
          "type": "bool"
        }
      ],
      "payable": false,
      "stateMutability": "view",
      "type": "function"
    },
    {
      "constant": true,
      "inputs": [],
      "name": "name",
      "outputs": [
        {
          "internalType": "string",
          "name": "",
          "type": "string"
        }
      ],
      "payable": false,
      "stateMutability": "view",
      "type": "function"
    },
    {
      "constant": true,
      "inputs": [],
      "name": "owner",
      "outputs": [
        {
          "internalType": "address",
          "name": "",
          "type": "address"
        }
      ],
      "payable": false,
      "stateMutability": "view",
      "type": "function"
    },
    {
      "constant": true,
      "inputs": [
        {
          "internalType": "uint256",
          "name": "tokenId",
          "type": "uint256"
        }
      ],
      "name": "ownerOf",
      "outputs": [
        {
          "internalType": "address",
          "name": "",
          "type": "address"
        }
      ],
      "payable": false,
      "stateMutability": "view",
      "type": "function"
    },
    {
      "constant": true,
      "inputs": [
        {
          "internalType": "address",
          "name": "",
          "type": "address"
        },
        {
          "internalType": "uint256",
          "name": "",
          "type": "uint256"
        }
      ],
      "name": "ownerTokens",
      "outputs": [
        {
          "internalType": "uint256",
          "name": "",
          "type": "uint256"
        }
      ],
      "payable": false,
      "stateMutability": "view",
      "type": "function"
    },
    {
      "constant": true,
      "inputs": [
        {
          "internalType": "uint256",
          "name": "",
          "type": "uint256"
        }
      ],
      "name": "properties",
      "outputs": [
        {
          "internalType": "string",
          "name": "property_name",
          "type": "string"
        },
        {
          "internalType": "string",
          "name": "property_address",
          "type": "string"
        },
        {
          "internalType": "string",
          "name": "city",
          "type": "string"
        },
        {
          "internalType": "string",
          "name": "state",
          "type": "string"
        },
        {
          "internalType": "uint256",
          "name": "postal_code",
          "type": "uint256"
        }
      ],
      "payable": false,
      "stateMutability": "view",
      "type": "function"
    },
    {
      "constant": true,
      "inputs": [
        {
          "internalType": "uint256",
          "name": "",
          "type": "uint256"
        }
      ],
      "name": "propertiesApproved",
      "outputs": [
        {
          "internalType": "uint256",
          "name": "",
          "type": "uint256"
        }
      ],
      "payable": false,
      "stateMutability": "view",
      "type": "function"
    },
    {
      "constant": true,
      "inputs": [
        {
          "internalType": "uint256",
          "name": "",
          "type": "uint256"
        }
      ],
      "name": "propertiesForSale",
      "outputs": [
        {
          "internalType": "uint256",
          "name": "",
          "type": "uint256"
        }
      ],
      "payable": false,
      "stateMutability": "view",
      "type": "function"
    },
    {
      "constant": true,
      "inputs": [
        {
          "internalType": "uint256",
          "name": "",
          "type": "uint256"
        }
      ],
      "name": "propertyPrices",
      "outputs": [
        {
          "internalType": "uint256",
          "name": "",
          "type": "uint256"
        }
      ],
      "payable": false,
      "stateMutability": "view",
      "type": "function"
    },
    {
      "constant": false,
      "inputs": [],
      "name": "renounceOwnership",
      "outputs": [],
      "payable": false,
      "stateMutability": "nonpayable",
      "type": "function"
    },
    {
      "constant": false,
      "inputs": [
        {
          "internalType": "address",
          "name": "from",
          "type": "address"
        },
        {
          "internalType": "address",
          "name": "to",
          "type": "address"
        },
        {
          "internalType": "uint256",
          "name": "tokenId",
          "type": "uint256"
        }
      ],
      "name": "safeTransferFrom",
      "outputs": [],
      "payable": false,
      "stateMutability": "nonpayable",
      "type": "function"
    },
    {
      "constant": false,
      "inputs": [
        {
          "internalType": "address",
          "name": "from",
          "type": "address"
        },
        {
          "internalType": "address",
          "name": "to",
          "type": "address"
        },
        {
          "internalType": "uint256",
          "name": "tokenId",
          "type": "uint256"
        },
        {
          "internalType": "bytes",
          "name": "_data",
          "type": "bytes"
        }
      ],
      "name": "safeTransferFrom",
      "outputs": [],
      "payable": false,
      "stateMutability": "nonpayable",
      "type": "function"
    },
    {
      "constant": false,
      "inputs": [
        {
          "internalType": "address",
          "name": "to",
          "type": "address"
        },
        {
          "internalType": "bool",
          "name": "approved",
          "type": "bool"
        }
      ],
      "name": "setApprovalForAll",
      "outputs": [],
      "payable": false,
      "stateMutability": "nonpayable",
      "type": "function"
    },
    {
      "constant": true,
      "inputs": [
        {
          "internalType": "bytes4",
          "name": "interfaceId",
          "type": "bytes4"
        }
      ],
      "name": "supportsInterface",
      "outputs": [
        {
          "internalType": "bool",
          "name": "",
          "type": "bool"
        }
      ],
      "payable": false,
      "stateMutability": "view",
      "type": "function"
    },
    {
      "constant": true,
      "inputs": [],
      "name": "symbol",
      "outputs": [
        {
          "internalType": "string",
          "name": "",
          "type": "string"
        }
      ],
      "payable": false,
      "stateMutability": "view",
      "type": "function"
    },
    {
      "constant": true,
      "inputs": [
        {
          "internalType": "uint256",
          "name": "index",
          "type": "uint256"
        }
      ],
      "name": "tokenByIndex",
      "outputs": [
        {
          "internalType": "uint256",
          "name": "",
          "type": "uint256"
        }
      ],
      "payable": false,
      "stateMutability": "view",
      "type": "function"
    },
    {
      "constant": true,
      "inputs": [
        {
          "internalType": "address",
          "name": "owner",
          "type": "address"
        },
        {
          "internalType": "uint256",
          "name": "index",
          "type": "uint256"
        }
      ],
      "name": "tokenOfOwnerByIndex",
      "outputs": [
        {
          "internalType": "uint256",
          "name": "",
          "type": "uint256"
        }
      ],
      "payable": false,
      "stateMutability": "view",
      "type": "function"
    },
    {
      "constant": true,
      "inputs": [
        {
          "internalType": "uint256",
          "name": "tokenId",
          "type": "uint256"
        }
      ],
      "name": "tokenURI",
      "outputs": [
        {
          "internalType": "string",
          "name": "",
          "type": "string"
        }
      ],
      "payable": false,
      "stateMutability": "view",
      "type": "function"
    },
    {
      "constant": true,
      "inputs": [],
      "name": "totalSupply",
      "outputs": [
        {
          "internalType": "uint256",
          "name": "",
          "type": "uint256"
        }
      ],
      "payable": false,
      "stateMutability": "view",
      "type": "function"
    },
    {
      "constant": false,
      "inputs": [
        {
          "internalType": "address",
          "name": "from",
          "type": "address"
        },
        {
          "internalType": "address",
          "name": "to",
          "type": "address"
        },
        {
          "internalType": "uint256",
          "name": "tokenId",
          "type": "uint256"
        }
      ],
      "name": "transferFrom",
      "outputs": [],
      "payable": false,
      "stateMutability": "nonpayable",
      "type": "function"
    },
    {
      "constant": false,
      "inputs": [
        {
          "internalType": "address",
          "name": "newOwner",
          "type": "address"
        }
      ],
      "name": "transferOwnership",
      "outputs": [],
      "payable": false,
      "stateMutability": "nonpayable",
      "type": "function"
    },
    {
      "constant": false,
      "inputs": [
        {
          "internalType": "string",
          "name": "_property_name",
          "type": "string"
        },
        {
          "internalType": "string",
          "name": "_property_address",
          "type": "string"
        },
        {
          "internalType": "string",
          "name": "_city",
          "type": "string"
        },
        {
          "internalType": "string",
          "name": "_state",
          "type": "string"
        },
        {
          "internalType": "uint256",
          "name": "_postal_code",
          "type": "uint256"
        },
        {
          "internalType": "uint256",
          "name": "_price",
          "type": "uint256"
        },
        {
          "internalType": "address",
          "name": "_owner",
          "type": "address"
        }
      ],
      "name": "mint",
      "outputs": [],
      "payable": false,
      "stateMutability": "nonpayable",
      "type": "function"
    },
    {
      "constant": true,
      "inputs": [],
      "name": "propertiesForSaleN",
      "outputs": [
        {
          "internalType": "uint256",
          "name": "",
          "type": "uint256"
        }
      ],
      "payable": false,
      "stateMutability": "view",
      "type": "function"
    },
    {
      "constant": false,
      "inputs": [
        {
          "internalType": "uint256",
          "name": "_propertyId",
          "type": "uint256"
        }
      ],
      "name": "pushForSale",
      "outputs": [
        {
          "internalType": "uint256",
          "name": "",
          "type": "uint256"
        }
      ],
      "payable": false,
      "stateMutability": "nonpayable",
      "type": "function"
    },
    {
      "constant": false,
      "inputs": [
        {
          "internalType": "uint256",
          "name": "_propertyId",
          "type": "uint256"
        },
        {
          "internalType": "address",
          "name": "newOwner",
          "type": "address"
        }
      ],
      "name": "buyProperty",
      "outputs": [],
      "payable": false,
      "stateMutability": "nonpayable",
      "type": "function"
    },
    {
      "constant": false,
      "inputs": [
        {
          "internalType": "address",
          "name": "oldOwner",
          "type": "address"
        },
        {
          "internalType": "uint256",
          "name": "_propertyId",
          "type": "uint256"
        },
        {
          "internalType": "address",
          "name": "newOwner",
          "type": "address"
        }
      ],
      "name": "buyProperty2",
      "outputs": [],
      "payable": false,
      "stateMutability": "nonpayable",
      "type": "function"
    },
    {
      "constant": false,
      "inputs": [],
      "name": "withdrawBalance",
      "outputs": [],
      "payable": false,
      "stateMutability": "nonpayable",
      "type": "function"
    },
    {
      "constant": false,
      "inputs": [],
      "name": "transferMoney",
      "outputs": [],
      "payable": true,
      "stateMutability": "payable",
      "type": "function"
    },
    {
      "constant": false,
      "inputs": [
        {
          "internalType": "address",
          "name": "add",
          "type": "address"
        }
      ],
      "name": "tokensOfOwner",
      "outputs": [
        {
          "internalType": "uint256[]",
          "name": "",
          "type": "uint256[]"
        }
      ],
      "payable": false,
      "stateMutability": "nonpayable",
      "type": "function"
    }
  ],
  "bytecode": "0x60806040523480156200001157600080fd5b506040518060400160405280600881526020017f50726f70657274790000000000000000000000000000000000000000000000008152506040518060400160405280600881526020017f50524f50455254590000000000000000000000000000000000000000000000008152508181620000986301ffc9a760e01b620001cd60201b60201c565b620000b06380ac58cd60e01b620001cd60201b60201c565b620000c863780e9d6360e01b620001cd60201b60201c565b8160099080519060200190620000e0929190620002de565b5080600a9080519060200190620000f9929190620002de565b5062000112635b5e139f60e01b620001cd60201b60201c565b50505050600062000128620002d660201b60201c565b905080600c60006101000a81548173ffffffffffffffffffffffffffffffffffffffff021916908373ffffffffffffffffffffffffffffffffffffffff1602179055508073ffffffffffffffffffffffffffffffffffffffff16600073ffffffffffffffffffffffffffffffffffffffff167f8be0079c531659141344cd1fd0a4f28419497f9722a3daafe3b4186f6b6457e060405160405180910390a3506200038d565b63ffffffff60e01b817bffffffffffffffffffffffffffffffffffffffffffffffffffffffff191614156200026a576040517f08c379a000000000000000000000000000000000000000000000000000000000815260040180806020018281038252601c8152602001807f4552433136353a20696e76616c696420696e746572666163652069640000000081525060200191505060405180910390fd5b6001600080837bffffffffffffffffffffffffffffffffffffffffffffffffffffffff19167bffffffffffffffffffffffffffffffffffffffffffffffffffffffff1916815260200190815260200160002060006101000a81548160ff02191690831515021790555050565b600033905090565b828054600181600116156101000203166002900490600052602060002090601f016020900481019282601f106200032157805160ff191683800117855562000352565b8280016001018555821562000352579182015b828111156200035157825182559160200191906001019062000334565b5b50905062000361919062000365565b5090565b6200038a91905b80821115620003865760008160009055506001016200036c565b5090565b90565b613f18806200039d6000396000f3fe6080604052600436106101f95760003560e01c8063715018a61161010d578063a22cb465116100a0578063e450cd031161006f578063e450cd0314610d2c578063e86f42ff14610fed578063e985e9c514611068578063f2fde38b146110f1578063f7b1080814611142576101f9565b8063a22cb46514610aba578063b88d4fde14610b17578063c87b56dd14610c29578063d0873f5314610cdd576101f9565b80638f32d59b116100dc5780638f32d59b1461095157806392f8eb941461098057806395d89b41146109cf5780639e92a69414610a5f576101f9565b8063715018a6146107ee57806380dcd076146108055780638462151c146108545780638da5cb5b146108fa576101f9565b806328b60031116101905780635fd8c7101161015f5780635fd8c7101461069e5780636352211e146106b55780636af562e8146107305780636cee6d771461077f57806370a0823114610789576101f9565b806328b60031146104f65780632f745c591461056557806342842e0e146105d45780634f6ccce71461064f576101f9565b8063081812fc116101cc578063081812fc1461037a578063095ea7b3146103f557806318160ddd1461045057806323b872dd1461047b576101f9565b80630194b7a4146101fe57806301ffc9a71461022957806302024fd81461029b57806306fdde03146102ea575b600080fd5b34801561020a57600080fd5b50610213611341565b6040518082815260200191505060405180910390f35b34801561023557600080fd5b506102816004803603602081101561024c57600080fd5b8101908080357bffffffffffffffffffffffffffffffffffffffffffffffffffffffff1916906020019092919050505061134e565b604051808215151515815260200191505060405180910390f35b3480156102a757600080fd5b506102d4600480360360208110156102be57600080fd5b81019080803590602001909291905050506113b5565b6040518082815260200191505060405180910390f35b3480156102f657600080fd5b506102ff6113cd565b6040518080602001828103825283818151815260200191508051906020019080838360005b8381101561033f578082015181840152602081019050610324565b50505050905090810190601f16801561036c5780820380516001836020036101000a031916815260200191505b509250505060405180910390f35b34801561038657600080fd5b506103b36004803603602081101561039d57600080fd5b810190808035906020019092919050505061146f565b604051808273ffffffffffffffffffffffffffffffffffffffff1673ffffffffffffffffffffffffffffffffffffffff16815260200191505060405180910390f35b34801561040157600080fd5b5061044e6004803603604081101561041857600080fd5b81019080803573ffffffffffffffffffffffffffffffffffffffff1690602001909291908035906020019092919050505061150a565b005b34801561045c57600080fd5b506104656116e3565b6040518082815260200191505060405180910390f35b34801561048757600080fd5b506104f46004803603606081101561049e57600080fd5b81019080803573ffffffffffffffffffffffffffffffffffffffff169060200190929190803573ffffffffffffffffffffffffffffffffffffffff169060200190929190803590602001909291905050506116f0565b005b34801561050257600080fd5b5061054f6004803603604081101561051957600080fd5b81019080803573ffffffffffffffffffffffffffffffffffffffff1690602001909291908035906020019092919050505061175f565b6040518082815260200191505060405180910390f35b34801561057157600080fd5b506105be6004803603604081101561058857600080fd5b81019080803573ffffffffffffffffffffffffffffffffffffffff1690602001909291908035906020019092919050505061178d565b6040518082815260200191505060405180910390f35b3480156105e057600080fd5b5061064d600480360360608110156105f757600080fd5b81019080803573ffffffffffffffffffffffffffffffffffffffff169060200190929190803573ffffffffffffffffffffffffffffffffffffffff1690602001909291908035906020019092919050505061184c565b005b34801561065b57600080fd5b506106886004803603602081101561067257600080fd5b810190808035906020019092919050505061186c565b6040518082815260200191505060405180910390f35b3480156106aa57600080fd5b506106b36118ec565b005b3480156106c157600080fd5b506106ee600480360360208110156106d857600080fd5b81019080803590602001909291905050506119c6565b604051808273ffffffffffffffffffffffffffffffffffffffff1673ffffffffffffffffffffffffffffffffffffffff16815260200191505060405180910390f35b34801561073c57600080fd5b506107696004803603602081101561075357600080fd5b8101908080359060200190929190505050611a8e565b6040518082815260200191505060405180910390f35b610787611aaf565b005b34801561079557600080fd5b506107d8600480360360208110156107ac57600080fd5b81019080803573ffffffffffffffffffffffffffffffffffffffff169060200190929190505050611b12565b6040518082815260200191505060405180910390f35b3480156107fa57600080fd5b50610803611be7565b005b34801561081157600080fd5b5061083e6004803603602081101561082857600080fd5b8101908080359060200190929190505050611d22565b6040518082815260200191505060405180910390f35b34801561086057600080fd5b506108a36004803603602081101561087757600080fd5b81019080803573ffffffffffffffffffffffffffffffffffffffff169060200190929190505050611d43565b6040518080602001828103825283818151815260200191508051906020019060200280838360005b838110156108e65780820151818401526020810190506108cb565b505050509050019250505060405180910390f35b34801561090657600080fd5b5061090f611dda565b604051808273ffffffffffffffffffffffffffffffffffffffff1673ffffffffffffffffffffffffffffffffffffffff16815260200191505060405180910390f35b34801561095d57600080fd5b50610966611e04565b604051808215151515815260200191505060405180910390f35b34801561098c57600080fd5b506109b9600480360360208110156109a357600080fd5b8101908080359060200190929190505050611e63565b6040518082815260200191505060405180910390f35b3480156109db57600080fd5b506109e4611e7b565b6040518080602001828103825283818151815260200191508051906020019080838360005b83811015610a24578082015181840152602081019050610a09565b50505050905090810190601f168015610a515780820380516001836020036101000a031916815260200191505b509250505060405180910390f35b348015610a6b57600080fd5b50610ab860048036036040811015610a8257600080fd5b8101908080359060200190929190803573ffffffffffffffffffffffffffffffffffffffff169060200190929190505050611f1d565b005b348015610ac657600080fd5b50610b1560048036036040811015610add57600080fd5b81019080803573ffffffffffffffffffffffffffffffffffffffff169060200190929190803515159060200190929190505050612104565b005b348015610b2357600080fd5b50610c2760048036036080811015610b3a57600080fd5b81019080803573ffffffffffffffffffffffffffffffffffffffff169060200190929190803573ffffffffffffffffffffffffffffffffffffffff1690602001909291908035906020019092919080359060200190640100000000811115610ba157600080fd5b820183602082011115610bb357600080fd5b80359060200191846001830284011164010000000083111715610bd557600080fd5b91908080601f016020809104026020016040519081016040528093929190818152602001838380828437600081840152601f19601f8201169050808301925050505050505091929192905050506122a7565b005b348015610c3557600080fd5b50610c6260048036036020811015610c4c57600080fd5b8101908080359060200190929190505050612319565b6040518080602001828103825283818151815260200191508051906020019080838360005b83811015610ca2578082015181840152602081019050610c87565b50505050905090810190601f168015610ccf5780820380516001836020036101000a031916815260200191505b509250505060405180910390f35b348015610ce957600080fd5b50610d1660048036036020811015610d0057600080fd5b810190808035906020019092919050505061242c565b6040518082815260200191505060405180910390f35b348015610d3857600080fd5b50610feb600480360360e0811015610d4f57600080fd5b8101908080359060200190640100000000811115610d6c57600080fd5b820183602082011115610d7e57600080fd5b80359060200191846001830284011164010000000083111715610da057600080fd5b91908080601f016020809104026020016040519081016040528093929190818152602001838380828437600081840152601f19601f82011690508083019250505050505050919291929080359060200190640100000000811115610e0357600080fd5b820183602082011115610e1557600080fd5b80359060200191846001830284011164010000000083111715610e3757600080fd5b91908080601f016020809104026020016040519081016040528093929190818152602001838380828437600081840152601f19601f82011690508083019250505050505050919291929080359060200190640100000000811115610e9a57600080fd5b820183602082011115610eac57600080fd5b80359060200191846001830284011164010000000083111715610ece57600080fd5b91908080601f016020809104026020016040519081016040528093929190818152602001838380828437600081840152601f19601f82011690508083019250505050505050919291929080359060200190640100000000811115610f3157600080fd5b820183602082011115610f4357600080fd5b80359060200191846001830284011164010000000083111715610f6557600080fd5b91908080601f016020809104026020016040519081016040528093929190818152602001838380828437600081840152601f19601f8201169050808301925050505050505091929192908035906020019092919080359060200190929190803573ffffffffffffffffffffffffffffffffffffffff16906020019092919050505061253e565b005b348015610ff957600080fd5b506110666004803603606081101561101057600080fd5b81019080803573ffffffffffffffffffffffffffffffffffffffff16906020019092919080359060200190929190803573ffffffffffffffffffffffffffffffffffffffff169060200190929190505050612717565b005b34801561107457600080fd5b506110d76004803603604081101561108b57600080fd5b81019080803573ffffffffffffffffffffffffffffffffffffffff169060200190929190803573ffffffffffffffffffffffffffffffffffffffff1690602001909291905050506129f3565b604051808215151515815260200191505060405180910390f35b3480156110fd57600080fd5b506111406004803603602081101561111457600080fd5b81019080803573ffffffffffffffffffffffffffffffffffffffff169060200190929190505050612a87565b005b34801561114e57600080fd5b5061117b6004803603602081101561116557600080fd5b8101908080359060200190929190505050612b0d565b604051808060200180602001806020018060200186815260200185810385528a818151815260200191508051906020019080838360005b838110156111cd5780820151818401526020810190506111b2565b50505050905090810190601f1680156111fa5780820380516001836020036101000a031916815260200191505b50858103845289818151815260200191508051906020019080838360005b83811015611233578082015181840152602081019050611218565b50505050905090810190601f1680156112605780820380516001836020036101000a031916815260200191505b50858103835288818151815260200191508051906020019080838360005b8381101561129957808201518184015260208101905061127e565b50505050905090810190601f1680156112c65780820380516001836020036101000a031916815260200191505b50858103825287818151815260200191508051906020019080838360005b838110156112ff5780820151818401526020810190506112e4565b50505050905090810190601f16801561132c5780820380516001836020036101000a031916815260200191505b50995050505050505050505060405180910390f35b6000601180549050905090565b6000806000837bffffffffffffffffffffffffffffffffffffffffffffffffffffffff19167bffffffffffffffffffffffffffffffffffffffffffffffffffffffff1916815260200190815260200160002060009054906101000a900460ff169050919050565b60106020528060005260406000206000915090505481565b606060098054600181600116156101000203166002900480601f0160208091040260200160405190810160405280929190818152602001828054600181600116156101000203166002900480156114655780601f1061143a57610100808354040283529160200191611465565b820191906000526020600020905b81548152906001019060200180831161144857829003601f168201915b5050505050905090565b600061147a82612db0565b6114cf576040517f08c379a000000000000000000000000000000000000000000000000000000000815260040180806020018281038252602c815260200180613de2602c913960400191505060405180910390fd5b6002600083815260200190815260200160002060009054906101000a900473ffffffffffffffffffffffffffffffffffffffff169050919050565b6000611515826119c6565b90508073ffffffffffffffffffffffffffffffffffffffff168373ffffffffffffffffffffffffffffffffffffffff16141561159c576040517f08c379a0000000000000000000000000000000000000000000000000000000008152600401808060200182810382526021815260200180613e666021913960400191505060405180910390fd5b8073ffffffffffffffffffffffffffffffffffffffff163373ffffffffffffffffffffffffffffffffffffffff1614806115dc57506115db81336129f3565b5b611631576040517f08c379a0000000000000000000000000000000000000000000000000000000008152600401808060200182810382526038815260200180613d576038913960400191505060405180910390fd5b826002600084815260200190815260200160002060006101000a81548173ffffffffffffffffffffffffffffffffffffffff021916908373ffffffffffffffffffffffffffffffffffffffff160217905550818373ffffffffffffffffffffffffffffffffffffffff168273ffffffffffffffffffffffffffffffffffffffff167f8c5be1e5ebec7d5bd14f71427d1e84f3dd0314c0f7b2291e5b200ac8c7c3b92560405160405180910390a4505050565b6000600780549050905090565b6116fa3382612e22565b61174f576040517f08c379a0000000000000000000000000000000000000000000000000000000008152600401808060200182810382526031815260200180613e876031913960400191505060405180910390fd5b61175a838383612f16565b505050565b600d602052816000526040600020818154811061177857fe5b90600052602060002001600091509150505481565b600061179883611b12565b82106117ef576040517f08c379a000000000000000000000000000000000000000000000000000000000815260040180806020018281038252602b815260200180613c84602b913960400191505060405180910390fd5b600560008473ffffffffffffffffffffffffffffffffffffffff1673ffffffffffffffffffffffffffffffffffffffff168152602001908152602001600020828154811061183957fe5b9060005260206000200154905092915050565b611867838383604051806020016040528060008152506122a7565b505050565b60006118766116e3565b82106118cd576040517f08c379a000000000000000000000000000000000000000000000000000000000815260040180806020018281038252602c815260200180613eb8602c913960400191505060405180910390fd5b600782815481106118da57fe5b90600052602060002001549050919050565b6118f4611e04565b611966576040517f08c379a00000000000000000000000000000000000000000000000000000000081526004018080602001828103825260208152602001807f4f776e61626c653a2063616c6c6572206973206e6f7420746865206f776e657281525060200191505060405180910390fd5b3373ffffffffffffffffffffffffffffffffffffffff166108fc3073ffffffffffffffffffffffffffffffffffffffff16319081150290604051600060405180830381858888f193505050501580156119c3573d6000803e3d6000fd5b50565b6000806001600084815260200190815260200160002060009054906101000a900473ffffffffffffffffffffffffffffffffffffffff169050600073ffffffffffffffffffffffffffffffffffffffff168173ffffffffffffffffffffffffffffffffffffffff161415611a85576040517f08c379a0000000000000000000000000000000000000000000000000000000008152600401808060200182810382526029815260200180613db96029913960400191505060405180910390fd5b80915050919050565b60118181548110611a9b57fe5b906000526020600020016000915090505481565b60007384753f397f925aba6d00222c51e8f6c6b81359e590508073ffffffffffffffffffffffffffffffffffffffff166108fc349081150290604051600060405180830381858888f19350505050158015611b0e573d6000803e3d6000fd5b5050565b60008073ffffffffffffffffffffffffffffffffffffffff168273ffffffffffffffffffffffffffffffffffffffff161415611b99576040517f08c379a000000000000000000000000000000000000000000000000000000000815260040180806020018281038252602a815260200180613d8f602a913960400191505060405180910390fd5b611be0600360008473ffffffffffffffffffffffffffffffffffffffff1673ffffffffffffffffffffffffffffffffffffffff168152602001908152602001600020612f3a565b9050919050565b611bef611e04565b611c61576040517f08c379a00000000000000000000000000000000000000000000000000000000081526004018080602001828103825260208152602001807f4f776e61626c653a2063616c6c6572206973206e6f7420746865206f776e657281525060200191505060405180910390fd5b600073ffffffffffffffffffffffffffffffffffffffff16600c60009054906101000a900473ffffffffffffffffffffffffffffffffffffffff1673ffffffffffffffffffffffffffffffffffffffff167f8be0079c531659141344cd1fd0a4f28419497f9722a3daafe3b4186f6b6457e060405160405180910390a36000600c60006101000a81548173ffffffffffffffffffffffffffffffffffffffff021916908373ffffffffffffffffffffffffffffffffffffffff160217905550565b60128181548110611d2f57fe5b906000526020600020016000915090505481565b6060600d60008373ffffffffffffffffffffffffffffffffffffffff1673ffffffffffffffffffffffffffffffffffffffff168152602001908152602001600020805480602002602001604051908101604052809291908181526020018280548015611dce57602002820191906000526020600020905b815481526020019060010190808311611dba575b50505050509050919050565b6000600c60009054906101000a900473ffffffffffffffffffffffffffffffffffffffff16905090565b6000600c60009054906101000a900473ffffffffffffffffffffffffffffffffffffffff1673ffffffffffffffffffffffffffffffffffffffff16611e47612f48565b73ffffffffffffffffffffffffffffffffffffffff1614905090565b60136020528060005260406000206000915090505481565b6060600a8054600181600116156101000203166002900480601f016020809104026020016040519081016040528092919081815260200182805460018160011615610100020316600290048015611f135780601f10611ee857610100808354040283529160200191611f13565b820191906000526020600020905b815481529060010190602001808311611ef657829003601f168201915b5050505050905090565b3373ffffffffffffffffffffffffffffffffffffffff16611f3d836119c6565b73ffffffffffffffffffffffffffffffffffffffff161480611f9257503373ffffffffffffffffffffffffffffffffffffffff16611f7a8361146f565b73ffffffffffffffffffffffffffffffffffffffff16145b612004576040517f08c379a00000000000000000000000000000000000000000000000000000000081526004018080602001828103825260158152602001807f53656e646572206e6f7420617574686f72697a6564000000000000000000000081525060200191505060405180910390fd5b61200f3382846116f0565b600d60008273ffffffffffffffffffffffffffffffffffffffff1673ffffffffffffffffffffffffffffffffffffffff168152602001908152602001600020829080600181540180825580915050906001820390600052602060002001600090919290919091505550600060116001601180549050038154811061208f57fe5b9060005260206000200154905060006013600085815260200190815260200160002054905081601182815481106120c257fe5b906000526020600020018190555080601360008481526020019081526020016000208190555060118054809190600190036120fd9190613b57565b5050505050565b3373ffffffffffffffffffffffffffffffffffffffff168273ffffffffffffffffffffffffffffffffffffffff1614156121a6576040517f08c379a00000000000000000000000000000000000000000000000000000000081526004018080602001828103825260198152602001807f4552433732313a20617070726f766520746f2063616c6c65720000000000000081525060200191505060405180910390fd5b80600460003373ffffffffffffffffffffffffffffffffffffffff1673ffffffffffffffffffffffffffffffffffffffff16815260200190815260200160002060008473ffffffffffffffffffffffffffffffffffffffff1673ffffffffffffffffffffffffffffffffffffffff16815260200190815260200160002060006101000a81548160ff0219169083151502179055508173ffffffffffffffffffffffffffffffffffffffff163373ffffffffffffffffffffffffffffffffffffffff167f17307eab39ab6107e8899845ad3d59bd9653f200f220920489ca2b5937696c3183604051808215151515815260200191505060405180910390a35050565b6122b28484846116f0565b6122be84848484612f50565b612313576040517f08c379a0000000000000000000000000000000000000000000000000000000008152600401808060200182810382526032815260200180613caf6032913960400191505060405180910390fd5b50505050565b606061232482612db0565b612379576040517f08c379a000000000000000000000000000000000000000000000000000000000815260040180806020018281038252602f815260200180613e37602f913960400191505060405180910390fd5b600b60008381526020019081526020016000208054600181600116156101000203166002900480601f0160208091040260200160405190810160405280929190818152602001828054600181600116156101000203166002900480156124205780601f106123f557610100808354040283529160200191612420565b820191906000526020600020905b81548152906001019060200180831161240357829003601f168201915b50505050509050919050565b6000806000905060008090505b60118054905081101561247757836011828154811061245457fe5b9060005260206000200154141561246a57600191505b8080600101915050612439565b5080156124ec576040517f08c379a00000000000000000000000000000000000000000000000000000000081526004018080602001828103825260118152602001807f414c7265616479204f6e204d61726b657400000000000000000000000000000081525060200191505060405180910390fd5b6011839080600181540180825580915050906001820390600052602060002001600090919290919091505550600160118054905003601360008581526020019081526020016000208190555050919050565b612546611e04565b6125b8576040517f08c379a00000000000000000000000000000000000000000000000000000000081526004018080602001828103825260208152602001807f4f776e61626c653a2063616c6c6572206973206e6f7420746865206f776e657281525060200191505060405180910390fd5b6125c0613b83565b6040518060a0016040528089815260200188815260200187815260200186815260200185815250905060006001600f83908060018154018082558091505090600182039060005260206000209060050201600090919290919091506000820151816000019080519060200190612637929190613bb2565b506020820151816001019080519060200190612654929190613bb2565b506040820151816002019080519060200190612671929190613bb2565b50606082015181600301908051906020019061268e929190613bb2565b506080820151816004015550500390508360106000838152602001908152602001600020819055506011819080600181540180825580915050906001820390600052602060002001600090919290919091505550600160118054905003601360008381526020019081526020016000208190555061270c8382613139565b505050505050505050565b3373ffffffffffffffffffffffffffffffffffffffff16612737836119c6565b73ffffffffffffffffffffffffffffffffffffffff16148061278c57503373ffffffffffffffffffffffffffffffffffffffff166127748361146f565b73ffffffffffffffffffffffffffffffffffffffff16145b6127fe576040517f08c379a00000000000000000000000000000000000000000000000000000000081526004018080602001828103825260158152602001807f53656e646572206e6f7420617574686f72697a6564000000000000000000000081525060200191505060405180910390fd5b6128098382846116f0565b600d60008273ffffffffffffffffffffffffffffffffffffffff1673ffffffffffffffffffffffffffffffffffffffff1681526020019081526020016000208290806001815401808255809150509060018203906000526020600020016000909192909190915055506000600d60008573ffffffffffffffffffffffffffffffffffffffff1673ffffffffffffffffffffffffffffffffffffffff16815260200190815260200160002090506000808280549050905060008090505b818110156128fc57858482815481106128da57fe5b906000526020600020015414156128ef578092505b80806001019150506128c5565b5082600182038154811061290c57fe5b906000526020600020015483838154811061292357fe5b906000526020600020018190555082600182038154811061294057fe5b9060005260206000200160009055828054809190600190036129629190613c32565b50600060116001601180549050038154811061297a57fe5b9060005260206000200154905060006013600088815260200190815260200160002054905081601182815481106129ad57fe5b906000526020600020018190555080601360008481526020019081526020016000208190555060118054809190600190036129e89190613b57565b505050505050505050565b6000600460008473ffffffffffffffffffffffffffffffffffffffff1673ffffffffffffffffffffffffffffffffffffffff16815260200190815260200160002060008373ffffffffffffffffffffffffffffffffffffffff1673ffffffffffffffffffffffffffffffffffffffff16815260200190815260200160002060009054906101000a900460ff16905092915050565b612a8f611e04565b612b01576040517f08c379a00000000000000000000000000000000000000000000000000000000081526004018080602001828103825260208152602001807f4f776e61626c653a2063616c6c6572206973206e6f7420746865206f776e657281525060200191505060405180910390fd5b612b0a8161315a565b50565b600f8181548110612b1a57fe5b9060005260206000209060050201600091509050806000018054600181600116156101000203166002900480601f016020809104026020016040519081016040528092919081815260200182805460018160011615610100020316600290048015612bc65780601f10612b9b57610100808354040283529160200191612bc6565b820191906000526020600020905b815481529060010190602001808311612ba957829003601f168201915b505050505090806001018054600181600116156101000203166002900480601f016020809104026020016040519081016040528092919081815260200182805460018160011615610100020316600290048015612c645780601f10612c3957610100808354040283529160200191612c64565b820191906000526020600020905b815481529060010190602001808311612c4757829003601f168201915b505050505090806002018054600181600116156101000203166002900480601f016020809104026020016040519081016040528092919081815260200182805460018160011615610100020316600290048015612d025780601f10612cd757610100808354040283529160200191612d02565b820191906000526020600020905b815481529060010190602001808311612ce557829003601f168201915b505050505090806003018054600181600116156101000203166002900480601f016020809104026020016040519081016040528092919081815260200182805460018160011615610100020316600290048015612da05780601f10612d7557610100808354040283529160200191612da0565b820191906000526020600020905b815481529060010190602001808311612d8357829003601f168201915b5050505050908060040154905085565b6000806001600084815260200190815260200160002060009054906101000a900473ffffffffffffffffffffffffffffffffffffffff169050600073ffffffffffffffffffffffffffffffffffffffff168173ffffffffffffffffffffffffffffffffffffffff161415915050919050565b6000612e2d82612db0565b612e82576040517f08c379a000000000000000000000000000000000000000000000000000000000815260040180806020018281038252602c815260200180613d2b602c913960400191505060405180910390fd5b6000612e8d836119c6565b90508073ffffffffffffffffffffffffffffffffffffffff168473ffffffffffffffffffffffffffffffffffffffff161480612efc57508373ffffffffffffffffffffffffffffffffffffffff16612ee48461146f565b73ffffffffffffffffffffffffffffffffffffffff16145b80612f0d5750612f0c81856129f3565b5b91505092915050565b612f218383836132a0565b612f2b83826134fb565b612f358282613699565b505050565b600081600001549050919050565b600033905090565b6000612f718473ffffffffffffffffffffffffffffffffffffffff16613760565b612f7e5760019050613131565b60008473ffffffffffffffffffffffffffffffffffffffff1663150b7a02338887876040518563ffffffff1660e01b8152600401808573ffffffffffffffffffffffffffffffffffffffff1673ffffffffffffffffffffffffffffffffffffffff1681526020018473ffffffffffffffffffffffffffffffffffffffff1673ffffffffffffffffffffffffffffffffffffffff16815260200183815260200180602001828103825283818151815260200191508051906020019080838360005b8381101561305957808201518184015260208101905061303e565b50505050905090810190601f1680156130865780820380516001836020036101000a031916815260200191505b5095505050505050602060405180830381600087803b1580156130a857600080fd5b505af11580156130bc573d6000803e3d6000fd5b505050506040513d60208110156130d257600080fd5b8101908080519060200190929190505050905063150b7a0260e01b7bffffffffffffffffffffffffffffffffffffffffffffffffffffffff1916817bffffffffffffffffffffffffffffffffffffffffffffffffffffffff1916149150505b949350505050565b6131438282613773565b61314d8282613699565b6131568161398b565b5050565b600073ffffffffffffffffffffffffffffffffffffffff168173ffffffffffffffffffffffffffffffffffffffff1614156131e0576040517f08c379a0000000000000000000000000000000000000000000000000000000008152600401808060200182810382526026815260200180613ce16026913960400191505060405180910390fd5b8073ffffffffffffffffffffffffffffffffffffffff16600c60009054906101000a900473ffffffffffffffffffffffffffffffffffffffff1673ffffffffffffffffffffffffffffffffffffffff167f8be0079c531659141344cd1fd0a4f28419497f9722a3daafe3b4186f6b6457e060405160405180910390a380600c60006101000a81548173ffffffffffffffffffffffffffffffffffffffff021916908373ffffffffffffffffffffffffffffffffffffffff16021790555050565b8273ffffffffffffffffffffffffffffffffffffffff166132c0826119c6565b73ffffffffffffffffffffffffffffffffffffffff161461332c576040517f08c379a0000000000000000000000000000000000000000000000000000000008152600401808060200182810382526029815260200180613e0e6029913960400191505060405180910390fd5b600073ffffffffffffffffffffffffffffffffffffffff168273ffffffffffffffffffffffffffffffffffffffff1614156133b2576040517f08c379a0000000000000000000000000000000000000000000000000000000008152600401808060200182810382526024815260200180613d076024913960400191505060405180910390fd5b6133bb816139d7565b613402600360008573ffffffffffffffffffffffffffffffffffffffff1673ffffffffffffffffffffffffffffffffffffffff168152602001908152602001600020613a95565b613449600360008473ffffffffffffffffffffffffffffffffffffffff1673ffffffffffffffffffffffffffffffffffffffff168152602001908152602001600020613ab8565b816001600083815260200190815260200160002060006101000a81548173ffffffffffffffffffffffffffffffffffffffff021916908373ffffffffffffffffffffffffffffffffffffffff160217905550808273ffffffffffffffffffffffffffffffffffffffff168473ffffffffffffffffffffffffffffffffffffffff167fddf252ad1be2c89b69c2b068fc378daa952ba7f163c4a11628f55a4df523b3ef60405160405180910390a4505050565b60006135536001600560008673ffffffffffffffffffffffffffffffffffffffff1673ffffffffffffffffffffffffffffffffffffffff16815260200190815260200160002080549050613ace90919063ffffffff16565b9050600060066000848152602001908152602001600020549050818114613640576000600560008673ffffffffffffffffffffffffffffffffffffffff1673ffffffffffffffffffffffffffffffffffffffff16815260200190815260200160002083815481106135c057fe5b9060005260206000200154905080600560008773ffffffffffffffffffffffffffffffffffffffff1673ffffffffffffffffffffffffffffffffffffffff168152602001908152602001600020838154811061361857fe5b9060005260206000200181905550816006600083815260200190815260200160002081905550505b600560008573ffffffffffffffffffffffffffffffffffffffff1673ffffffffffffffffffffffffffffffffffffffff1681526020019081526020016000208054809190600190036136929190613b57565b5050505050565b600560008373ffffffffffffffffffffffffffffffffffffffff1673ffffffffffffffffffffffffffffffffffffffff168152602001908152602001600020805490506006600083815260200190815260200160002081905550600560008373ffffffffffffffffffffffffffffffffffffffff1673ffffffffffffffffffffffffffffffffffffffff1681526020019081526020016000208190806001815401808255809150509060018203906000526020600020016000909192909190915055505050565b600080823b905060008111915050919050565b600073ffffffffffffffffffffffffffffffffffffffff168273ffffffffffffffffffffffffffffffffffffffff161415613816576040517f08c379a00000000000000000000000000000000000000000000000000000000081526004018080602001828103825260208152602001807f4552433732313a206d696e7420746f20746865207a65726f206164647265737381525060200191505060405180910390fd5b61381f81612db0565b15613892576040517f08c379a000000000000000000000000000000000000000000000000000000000815260040180806020018281038252601c8152602001807f4552433732313a20746f6b656e20616c7265616479206d696e7465640000000081525060200191505060405180910390fd5b816001600083815260200190815260200160002060006101000a81548173ffffffffffffffffffffffffffffffffffffffff021916908373ffffffffffffffffffffffffffffffffffffffff16021790555061392b600360008473ffffffffffffffffffffffffffffffffffffffff1673ffffffffffffffffffffffffffffffffffffffff168152602001908152602001600020613ab8565b808273ffffffffffffffffffffffffffffffffffffffff16600073ffffffffffffffffffffffffffffffffffffffff167fddf252ad1be2c89b69c2b068fc378daa952ba7f163c4a11628f55a4df523b3ef60405160405180910390a45050565b6007805490506008600083815260200190815260200160002081905550600781908060018154018082558091505090600182039060005260206000200160009091929091909150555050565b600073ffffffffffffffffffffffffffffffffffffffff166002600083815260200190815260200160002060009054906101000a900473ffffffffffffffffffffffffffffffffffffffff1673ffffffffffffffffffffffffffffffffffffffff1614613a925760006002600083815260200190815260200160002060006101000a81548173ffffffffffffffffffffffffffffffffffffffff021916908373ffffffffffffffffffffffffffffffffffffffff1602179055505b50565b613aad60018260000154613ace90919063ffffffff16565b816000018190555050565b6001816000016000828254019250508190555050565b600082821115613b46576040517f08c379a000000000000000000000000000000000000000000000000000000000815260040180806020018281038252601e8152602001807f536166654d6174683a207375627472616374696f6e206f766572666c6f77000081525060200191505060405180910390fd5b600082840390508091505092915050565b815481835581811115613b7e57818360005260206000209182019101613b7d9190613c5e565b5b505050565b6040518060a0016040528060608152602001606081526020016060815260200160608152602001600081525090565b828054600181600116156101000203166002900490600052602060002090601f016020900481019282601f10613bf357805160ff1916838001178555613c21565b82800160010185558215613c21579182015b82811115613c20578251825591602001919060010190613c05565b5b509050613c2e9190613c5e565b5090565b815481835581811115613c5957818360005260206000209182019101613c589190613c5e565b5b505050565b613c8091905b80821115613c7c576000816000905550600101613c64565b5090565b9056fe455243373231456e756d657261626c653a206f776e657220696e646578206f7574206f6620626f756e64734552433732313a207472616e7366657220746f206e6f6e20455243373231526563656976657220696d706c656d656e7465724f776e61626c653a206e6577206f776e657220697320746865207a65726f20616464726573734552433732313a207472616e7366657220746f20746865207a65726f20616464726573734552433732313a206f70657261746f7220717565727920666f72206e6f6e6578697374656e7420746f6b656e4552433732313a20617070726f76652063616c6c6572206973206e6f74206f776e6572206e6f7220617070726f76656420666f7220616c6c4552433732313a2062616c616e636520717565727920666f7220746865207a65726f20616464726573734552433732313a206f776e657220717565727920666f72206e6f6e6578697374656e7420746f6b656e4552433732313a20617070726f76656420717565727920666f72206e6f6e6578697374656e7420746f6b656e4552433732313a207472616e73666572206f6620746f6b656e2074686174206973206e6f74206f776e4552433732314d657461646174613a2055524920717565727920666f72206e6f6e6578697374656e7420746f6b656e4552433732313a20617070726f76616c20746f2063757272656e74206f776e65724552433732313a207472616e736665722063616c6c6572206973206e6f74206f776e6572206e6f7220617070726f766564455243373231456e756d657261626c653a20676c6f62616c20696e646578206f7574206f6620626f756e6473a265627a7a7231582003fdd1364fd4c6c5296246e6caacc56a9e148baf54a07226acce1705739c22a764736f6c634300050c0032",
  "source": "pragma solidity ^0.5.0;\r\nimport \"./ERC721Full.sol\";\r\n// import 'node_modules/@openzeppelin/contracts/ownership/Ownable.sol';\r\n// import \"https://github.com/OpenZeppelin/openzeppelin-contracts/blob/v2.4.0/contracts/ownership/Ownable.sol\";\r\nimport 'openzeppelin-solidity/contracts/ownership/Ownable.sol';\r\n\r\n\r\ncontract PropertyToken is ERC721Full,Ownable {\r\n\r\nstruct Property {\r\n         // IPFS Hash\r\n        string property_name;\r\n        string property_address;\r\n        string city;\r\n        string state;\r\n        uint postal_code;\r\n    }\r\n    mapping (address => uint[]) public ownerTokens;\r\n    // string[] public physical_address;\r\n    // mapping(string => bool) _propertyExists;\r\n    // mapping(uint => address) _propertyIndexToOwner;\r\n    // mapping(string => uint) _propertyToIndex;\r\n    mapping (uint256 => address) internal tokenApprovals;\r\n    Property[] public properties;\r\n    mapping(uint => uint) public propertyPrices;\r\n    uint[] public propertiesForSale;\r\n    uint[] public propertiesApproved;\r\n\r\n    mapping(uint => uint) public indexes; //propertyId -> propertiesForSale\r\n\r\n    constructor() ERC721Full(\"Property\",\"PROPERTY\") public    {\r\n    }\r\n\r\n    // function mint(string memory _physical_address) public {\r\n    //     require(!_propertyExists[_physical_address]);\r\n    //     uint _id = physical_address.push(_physical_address);\r\n    //     _mint(msg.sender, _id);\r\n    //     _propertyExists[_physical_address] = true;\r\n    //     _propertyIndexToOwner[_id] = msg.sender;\r\n    //     _propertyToIndex[_physical_address] = _id;\r\n    // }\r\n\r\n    function mint( string memory _property_name,\r\n                  string memory _property_address, string memory _city,\r\n                  string memory _state,uint  _postal_code, uint _price, address _owner) public onlyOwner {\r\n\r\n            Property memory p = Property({\r\n                 property_name : _property_name,\r\n                 property_address : _property_address,\r\n                 city : _city,\r\n                 state : _state,\r\n                 postal_code : _postal_code\r\n            });\r\n            uint propertyId = properties.push(p) - 1;\r\n            propertyPrices[propertyId] = _price;\r\n            propertiesForSale.push(propertyId);\r\n            indexes[propertyId] = propertiesForSale.length - 1;\r\n            // _mint is a function part of ERC721Token that generates the NFT\r\n            // The contract will own the newly minted tokens\r\n            _mint(_owner, propertyId);\r\n    }\r\n\r\n  /// @notice Get number of spaceships for sale\r\n    function propertiesForSaleN() public view returns(uint) {\r\n        return propertiesForSale.length;\r\n    }\r\n    function pushForSale(uint _propertyId) public returns(uint) {\r\n        bool avail = false;\r\n        for (uint i = 0; i < propertiesForSale.length; i++) {\r\n            if (propertiesForSale[i] == _propertyId)\r\n                avail = true;\r\n        }\r\n        require(!avail,\r\n        \"ALready On Market\");\r\n        propertiesForSale.push(_propertyId);\r\n        indexes[_propertyId] = propertiesForSale.length - 1;\r\n        // return propertiesApproved.length;\r\n    }\r\n    // function approveAndSale(address to,uint tokenId) public{\r\n    //     approve(to, tokenId);\r\n    //     pushForSale(tokenId);\r\n\r\n    // }\r\n\r\n    /// @notice Buy property\r\n    /// @param _propertyId TokenId\r\n\r\n    function buyProperty(uint _propertyId,address newOwner) public {\r\n        // You can only buy the spaceships owned by this contract\r\n        require(ownerOf(_propertyId) == msg.sender || getApproved(_propertyId) == msg.sender,\r\n        \"Sender not authorized\");\r\n        // Value sent should be at least the spaceship price\r\n        // require(msg.value >= propertyPrices[_propertyId],\r\n        // \"Value less than selling price\");\r\n        // approve(newOwner, _propertyId);\r\n        // We approve the transfer directly to avoid creating two trx\r\n        // then we send the token to the sender\r\n        // tokenApprovals[_propertyId] = msg.sender;\r\n        transferFrom(msg.sender, newOwner, _propertyId);\r\n        ownerTokens[newOwner].push(_propertyId);\r\n\r\n        // address payable rec = 0x84753F397F925ABA6d00222C51e8F6c6b81359E5;\r\n        // rec.transfer(msg.value);\r\n        // Delete the token from the list of tokens for sale\r\n        uint256 replacer = propertiesForSale[propertiesForSale.length - 1];\r\n        uint256 pos = indexes[_propertyId];\r\n        propertiesForSale[pos] = replacer;\r\n        indexes[replacer] = pos;\r\n        propertiesForSale.length--;\r\n        // uint refund = msg.value - propertyPrices[_propertyId];\r\n        // if (refund > 0)\r\n        //     msg.sender.transfer(refund);\r\n    }\r\n        function buyProperty2(address oldOwner,uint _propertyId,address newOwner) public {\r\n        // You can only buy the spaceships owned by this contract\r\n        require(ownerOf(_propertyId) == msg.sender || getApproved(_propertyId) == msg.sender,\r\n        \"Sender not authorized\");\r\n        \r\n        // Value sent should be at least the spaceship price\r\n        // require(msg.value >= propertyPrices[_propertyId],\r\n        // \"Value less than selling price\");\r\n        // approve(newOwner, _propertyId);\r\n        // We approve the transfer directly to avoid creating two trx\r\n        // then we send the token to the sender\r\n        // tokenApprovals[_propertyId] = msg.sender;\r\n        transferFrom(oldOwner, newOwner, _propertyId);\r\n        ownerTokens[newOwner].push(_propertyId);\r\n        uint[] storage oldOwnerArray = ownerTokens[oldOwner];\r\n        uint ind;\r\n        uint len = oldOwnerArray.length;\r\n        for( uint i = 0; i < len; i++)\r\n        {\r\n            if (oldOwnerArray[i] == _propertyId)\r\n                ind = i;\r\n        }\r\n\r\n        // ownerTokens[oldOwner][]\r\n        oldOwnerArray[ind] = oldOwnerArray[len-1];\r\n        delete oldOwnerArray[len-1];\r\n        oldOwnerArray.length --;\r\n        // address payable rec = 0x84753F397F925ABA6d00222C51e8F6c6b81359E5;\r\n        // rec.transfer(msg.value);\r\n        // Delete the token from the list of tokens for sale\r\n        uint256 replacer = propertiesForSale[propertiesForSale.length - 1];\r\n        uint256 pos = indexes[_propertyId];\r\n        propertiesForSale[pos] = replacer;\r\n        indexes[replacer] = pos;\r\n        propertiesForSale.length--;\r\n\r\n\r\n        \r\n        // uint refund = msg.value - propertyPrices[_propertyId];\r\n        // if (refund > 0)\r\n        //     msg.sender.transfer(refund);\r\n    }\r\n\r\n    /// @notice Withdraw sales balance\r\n    function withdrawBalance() public onlyOwner {\r\n        msg.sender.transfer(address(this).balance);\r\n    }\r\n    \r\n    function transferMoney() public payable  {\r\n        // rec.transfer(msg.value);\r\n        address payable rec = 0x84753F397F925ABA6d00222C51e8F6c6b81359E5;\r\n        rec.transfer(msg.value);\r\n    }\r\n    \r\n    /// @notice Get Metadata URI\r\n    /// \r\n    /// @return IPFS URL of the metadata\r\n    // function tokenURI(uint256 _propertyId) public payable returns (string memory) {\r\n    //     Property storage s = properties[_propertyId];\r\n    //     return strConcat(\"https://ipfs.io/ipfs/\", string(s.metadataHash));\r\n    // }\r\n\r\n    // /// @notice Concatenate strings\r\n    // /// @param _a First string\r\n    // /// @param _b Second string\r\n    // /// @return _a+_b\r\n    // function strConcat(string memory _a, string memory _b)  private returns (string memory) {\r\n    //     bytes memory _ba = bytes(_a);\r\n    //     bytes memory _bb = bytes(_b);\r\n    //     string memory ab = new string(_ba.length + _bb.length);\r\n    //     bytes memory bab = bytes(ab);\r\n    //     uint k = 0;\r\n\r\n    //     for (uint i = 0; i < _ba.length; i++)\r\n    //         bab[k++] = _ba[i];\r\n\r\n    //     for (uint i = 0; i < _bb.length; i++)\r\n    //         bab[k++] = _bb[i];\r\n\r\n    //     return string(bab);\r\n    // }\r\n\r\n    // function transfer(string memory _physical_address,address reciever) public payable returns (address) {\r\n    //     // address a = 0x84753F397F925ABA6d00222C51e8F6c6b81359E5;\r\n    //     // approve(a, 1);\r\n    //     // // _transferFrom(msg.sender, a, 1);\r\n    //     // // _propertyIndexToOwner[1] = a;\r\n    //     uint id = _propertyToIndex[_physical_address];\r\n    //     safeTransferFrom(msg.sender,reciever,id);\r\n    //     // return (msg.sender, balanceOf(msg.sender));\r\n    //     _propertyIndexToOwner[id] = reciever;\r\n    //     // uint256[] memory h = _tokensOfOwner(msg.sender);\r\n    //     return _propertyIndexToOwner[id];\r\n    // }\r\n\r\n    // function tokensOfOwner(address _owner) external view returns(uint256[] memory ownerTokens) {\r\n    //     uint256 tokenCount = balanceOf(_owner);\r\n\r\n    //     if (tokenCount == 0) {\r\n    //         // Return an empty array\r\n    //         return new uint256[](0);\r\n    //     } else {\r\n    //         uint256[] memory result = new uint256[](tokenCount);\r\n    //         uint256 total = totalSupply();\r\n    //         uint256 resultIndex = 0;\r\n\r\n    //         // We count on the fact that all proprty have IDs starting at 1 and increasing\r\n    //         // sequentially up to the count.\r\n    //         uint256 propertyId;\r\n\r\n    //         for (propertyId = 1; propertyId <= total; propertyId++) {\r\n    //             if (_propertyIndexToOwner[propertyId] == _owner) {\r\n    //                 result[resultIndex] = propertyId;\r\n    //                 resultIndex++;\r\n    //             }\r\n    //         }\r\n\r\n    //         return result;\r\n    //     }\r\n    // }\r\n    // function senderAddres() public view returns(uint256) {\r\n    //     uint256 tokenCount = balanceOf(msg.sender);\r\n\r\n    //     return tokenCount;\r\n\r\n    // }\r\n    function tokensOfOwner(address add) public returns(uint[] memory)\r\n    {\r\n     return ownerTokens[add];\r\n    }\r\n\r\n}\r\ncontract Market is Ownable {\r\n\r\n    PropertyToken pt = new PropertyToken();\r\n\r\n    function returnPropertyToken() public returns (address)\r\n    {\r\n        return address(pt);\r\n    }\r\n\r\n    struct Property {\r\n         // IPFS Hash\r\n        string property_name;\r\n        string property_address;\r\n        string city;\r\n        string state;\r\n        uint postal_code;\r\n    }\r\n    Property[] public marketProperties;\r\n\r\n    function tryAdd() public returns (address)\r\n    {\r\n        return msg.sender;\r\n    }\r\n\r\n    function mintPropety( string memory _property_name,\r\n                  string memory _property_address, string memory _city,\r\n                  string memory _state,uint  _postal_code, uint _price) public onlyOwner {\r\n\r\n        pt.mint(_property_name, _property_address, _city, _state, _postal_code, _price, address(this));\r\n    }\r\n    // function propertyForSaleN()  public view returns(uint)\r\n    // {\r\n    //     return pt.propertiesForSaleN();\r\n    // }\r\n    // function ownerOf(uint id) public returns(address)\r\n    // {\r\n    //     return pt.ownerOf(id);\r\n    // }\r\n    // function propertiesForSale(uint id) public returns (uint)\r\n    // {\r\n    //     return pt.propertiesForSale(id);\r\n    // }\r\n    // function getProperties(uint id) public returns(Property memory)\r\n    // {\r\n    //     marketProperties = pt.properties(id);\r\n    // }\r\n    function transferProperty(uint _propertyId,address app) public payable\r\n    {\r\n        address ownerToken = pt.ownerOf(_propertyId);\r\n        if(ownerToken == address(this))\r\n        {\r\n            pt.buyProperty(_propertyId,msg.sender);\r\n        }\r\n        else {\r\n            address payable prevOwner = address(uint160(ownerToken));\r\n            pt.buyProperty2(ownerToken,_propertyId,msg.sender);\r\n            prevOwner.transfer(msg.value);\r\n\r\n        }\r\n        // pt.setApproval()\r\n            // prevOwner.transfer(msg.value);\r\n        \r\n        // tokensOfOwner[msg.sender].push(_propertyId);\r\n        \r\n    }\r\n}\r\n",
  "sourcePath": "E:/Major Project/starter_kit/src/contracts/PropertyToken.sol",
  "compiler": {
    "name": "solc",
    "version": "0.5.12+commit.7709ece9.Emscripten.clang"
  },
  "schemaVersion": "3.0.20",
  "updatedAt": "2020-03-07T15:28:19.565Z",
  "devdoc": {
    "methods": {
      "approve(address,uint256)": {
        "details": "Approves another address to transfer the given token ID The zero address indicates there is no approved address. There can only be one approved address per token at a given time. Can only be called by the token owner or an approved operator.",
        "params": {
          "to": "address to be approved for the given token ID",
          "tokenId": "uint256 ID of the token to be approved"
        }
      },
      "balanceOf(address)": {
        "details": "Gets the balance of the specified address.",
        "params": {
          "owner": "address to query the balance of"
        },
        "return": "uint256 representing the amount owned by the passed address"
      },
      "buyProperty(uint256,address)": {
        "params": {
          "_propertyId": "TokenId"
        }
      },
      "getApproved(uint256)": {
        "details": "Gets the approved address for a token ID, or zero if no address set Reverts if the token ID does not exist.",
        "params": {
          "tokenId": "uint256 ID of the token to query the approval of"
        },
        "return": "address currently approved for the given token ID"
      },
      "isApprovedForAll(address,address)": {
        "details": "Tells whether an operator is approved by a given owner.",
        "params": {
          "operator": "operator address which you want to query the approval of",
          "owner": "owner address which you want to query the approval of"
        },
        "return": "bool whether the given operator is approved by the given owner"
      },
      "isOwner()": {
        "details": "Returns true if the caller is the current owner."
      },
      "name()": {
        "details": "Gets the token name.",
        "return": "string representing the token name"
      },
      "owner()": {
        "details": "Returns the address of the current owner."
      },
      "ownerOf(uint256)": {
        "details": "Gets the owner of the specified token ID.",
        "params": {
          "tokenId": "uint256 ID of the token to query the owner of"
        },
        "return": "address currently marked as the owner of the given token ID"
      },
      "renounceOwnership()": {
        "details": "Leaves the contract without owner. It will not be possible to call `onlyOwner` functions anymore. Can only be called by the current owner.     * NOTE: Renouncing ownership will leave the contract without an owner, thereby removing any functionality that is only available to the owner."
      },
      "safeTransferFrom(address,address,uint256)": {
        "details": "Safely transfers the ownership of a given token ID to another address If the target address is a contract, it must implement `onERC721Received`, which is called upon a safe transfer, and return the magic value `bytes4(keccak256(\"onERC721Received(address,address,uint256,bytes)\"))`; otherwise, the transfer is reverted. Requires the msg.sender to be the owner, approved, or operator",
        "params": {
          "from": "current owner of the token",
          "to": "address to receive the ownership of the given token ID",
          "tokenId": "uint256 ID of the token to be transferred"
        }
      },
      "safeTransferFrom(address,address,uint256,bytes)": {
        "details": "Safely transfers the ownership of a given token ID to another address If the target address is a contract, it must implement `onERC721Received`, which is called upon a safe transfer, and return the magic value `bytes4(keccak256(\"onERC721Received(address,address,uint256,bytes)\"))`; otherwise, the transfer is reverted. Requires the msg.sender to be the owner, approved, or operator",
        "params": {
          "_data": "bytes data to send along with a safe transfer check",
          "from": "current owner of the token",
          "to": "address to receive the ownership of the given token ID",
          "tokenId": "uint256 ID of the token to be transferred"
        }
      },
      "setApprovalForAll(address,bool)": {
        "details": "Sets or unsets the approval of a given operator An operator is allowed to transfer all tokens of the sender on their behalf.",
        "params": {
          "approved": "representing the status of the approval to be set",
          "to": "operator address to set the approval"
        }
      },
      "supportsInterface(bytes4)": {
        "details": "See `IERC165.supportsInterface`.      * Time complexity O(1), guaranteed to always use less than 30 000 gas."
      },
      "symbol()": {
        "details": "Gets the token symbol.",
        "return": "string representing the token symbol"
      },
      "tokenByIndex(uint256)": {
        "details": "Gets the token ID at a given index of all the tokens in this contract Reverts if the index is greater or equal to the total number of tokens.",
        "params": {
          "index": "uint256 representing the index to be accessed of the tokens list"
        },
        "return": "uint256 token ID at the given index of the tokens list"
      },
      "tokenOfOwnerByIndex(address,uint256)": {
        "details": "Gets the token ID at a given index of the tokens list of the requested owner.",
        "params": {
          "index": "uint256 representing the index to be accessed of the requested tokens list",
          "owner": "address owning the tokens list to be accessed"
        },
        "return": "uint256 token ID at the given index of the tokens list owned by the requested address"
      },
      "tokenURI(uint256)": {
        "details": "Returns an URI for a given token ID. Throws if the token ID does not exist. May return an empty string.",
        "params": {
          "tokenId": "uint256 ID of the token to query"
        }
      },
      "tokensOfOwner(address)": {
        "return": "IPFS URL of the metadata"
      },
      "totalSupply()": {
        "details": "Gets the total amount of tokens stored by the contract.",
        "return": "uint256 representing the total amount of tokens"
      },
      "transferFrom(address,address,uint256)": {
        "details": "Transfers the ownership of a given token ID to another address. Usage of this method is discouraged, use `safeTransferFrom` whenever possible. Requires the msg.sender to be the owner, approved, or operator.",
        "params": {
          "from": "current owner of the token",
          "to": "address to receive the ownership of the given token ID",
          "tokenId": "uint256 ID of the token to be transferred"
        }
      },
      "transferOwnership(address)": {
        "details": "Transfers ownership of the contract to a new account (`newOwner`). Can only be called by the current owner."
      }
    }
  },
  "userdoc": {
    "methods": {
      "buyProperty(uint256,address)": {
        "notice": "Buy property"
      },
      "propertiesForSaleN()": {
        "notice": "Get number of spaceships for sale"
      },
      "tokensOfOwner(address)": {
        "notice": "Get Metadata URI "
      },
      "withdrawBalance()": {
        "notice": "Withdraw sales balance"
      }
    }
  }
}