{
  "contractName": "PropertyToken",
  "abi": [
    {
      "inputs": [],
      "payable": false,
      "stateMutability": "nonpayable",
      "type": "constructor"
    },
    {
      "anonymous": false,
      "inputs": [
        {
          "indexed": true,
          "internalType": "address",
          "name": "owner",
          "type": "address"
        },
        {
          "indexed": true,
          "internalType": "address",
          "name": "approved",
          "type": "address"
        },
        {
          "indexed": true,
          "internalType": "uint256",
          "name": "tokenId",
          "type": "uint256"
        }
      ],
      "name": "Approval",
      "type": "event"
    },
    {
      "anonymous": false,
      "inputs": [
        {
          "indexed": true,
          "internalType": "address",
          "name": "owner",
          "type": "address"
        },
        {
          "indexed": true,
          "internalType": "address",
          "name": "operator",
          "type": "address"
        },
        {
          "indexed": false,
          "internalType": "bool",
          "name": "approved",
          "type": "bool"
        }
      ],
      "name": "ApprovalForAll",
      "type": "event"
    },
    {
      "anonymous": false,
      "inputs": [
        {
          "indexed": true,
          "internalType": "address",
          "name": "previousOwner",
          "type": "address"
        },
        {
          "indexed": true,
          "internalType": "address",
          "name": "newOwner",
          "type": "address"
        }
      ],
      "name": "OwnershipTransferred",
      "type": "event"
    },
    {
      "anonymous": false,
      "inputs": [
        {
          "indexed": true,
          "internalType": "address",
          "name": "from",
          "type": "address"
        },
        {
          "indexed": true,
          "internalType": "address",
          "name": "to",
          "type": "address"
        },
        {
          "indexed": true,
          "internalType": "uint256",
          "name": "tokenId",
          "type": "uint256"
        }
      ],
      "name": "Transfer",
      "type": "event"
    },
    {
      "constant": false,
      "inputs": [
        {
          "internalType": "address",
          "name": "to",
          "type": "address"
        },
        {
          "internalType": "uint256",
          "name": "tokenId",
          "type": "uint256"
        }
      ],
      "name": "approve",
      "outputs": [],
      "payable": false,
      "stateMutability": "nonpayable",
      "type": "function"
    },
    {
      "constant": true,
      "inputs": [
        {
          "internalType": "address",
          "name": "owner",
          "type": "address"
        }
      ],
      "name": "balanceOf",
      "outputs": [
        {
          "internalType": "uint256",
          "name": "",
          "type": "uint256"
        }
      ],
      "payable": false,
      "stateMutability": "view",
      "type": "function"
    },
    {
      "constant": true,
      "inputs": [
        {
          "internalType": "uint256",
          "name": "tokenId",
          "type": "uint256"
        }
      ],
      "name": "getApproved",
      "outputs": [
        {
          "internalType": "address",
          "name": "",
          "type": "address"
        }
      ],
      "payable": false,
      "stateMutability": "view",
      "type": "function"
    },
    {
      "constant": true,
      "inputs": [
        {
          "internalType": "uint256",
          "name": "",
          "type": "uint256"
        }
      ],
      "name": "indexes",
      "outputs": [
        {
          "internalType": "uint256",
          "name": "",
          "type": "uint256"
        }
      ],
      "payable": false,
      "stateMutability": "view",
      "type": "function"
    },
    {
      "constant": true,
      "inputs": [
        {
          "internalType": "address",
          "name": "owner",
          "type": "address"
        },
        {
          "internalType": "address",
          "name": "operator",
          "type": "address"
        }
      ],
      "name": "isApprovedForAll",
      "outputs": [
        {
          "internalType": "bool",
          "name": "",
          "type": "bool"
        }
      ],
      "payable": false,
      "stateMutability": "view",
      "type": "function"
    },
    {
      "constant": true,
      "inputs": [],
      "name": "isOwner",
      "outputs": [
        {
          "internalType": "bool",
          "name": "",
          "type": "bool"
        }
      ],
      "payable": false,
      "stateMutability": "view",
      "type": "function"
    },
    {
      "constant": true,
      "inputs": [],
      "name": "name",
      "outputs": [
        {
          "internalType": "string",
          "name": "",
          "type": "string"
        }
      ],
      "payable": false,
      "stateMutability": "view",
      "type": "function"
    },
    {
      "constant": true,
      "inputs": [],
      "name": "owner",
      "outputs": [
        {
          "internalType": "address",
          "name": "",
          "type": "address"
        }
      ],
      "payable": false,
      "stateMutability": "view",
      "type": "function"
    },
    {
      "constant": true,
      "inputs": [
        {
          "internalType": "uint256",
          "name": "tokenId",
          "type": "uint256"
        }
      ],
      "name": "ownerOf",
      "outputs": [
        {
          "internalType": "address",
          "name": "",
          "type": "address"
        }
      ],
      "payable": false,
      "stateMutability": "view",
      "type": "function"
    },
    {
      "constant": true,
      "inputs": [
        {
          "internalType": "address",
          "name": "",
          "type": "address"
        },
        {
          "internalType": "uint256",
          "name": "",
          "type": "uint256"
        }
      ],
      "name": "ownerTokens",
      "outputs": [
        {
          "internalType": "uint256",
          "name": "",
          "type": "uint256"
        }
      ],
      "payable": false,
      "stateMutability": "view",
      "type": "function"
    },
    {
      "constant": true,
      "inputs": [
        {
          "internalType": "uint256",
          "name": "",
          "type": "uint256"
        }
      ],
      "name": "properties",
      "outputs": [
        {
          "internalType": "string",
          "name": "property_name",
          "type": "string"
        },
        {
          "internalType": "string",
          "name": "property_address",
          "type": "string"
        },
        {
          "internalType": "string",
          "name": "city",
          "type": "string"
        },
        {
          "internalType": "string",
          "name": "state",
          "type": "string"
        },
        {
          "internalType": "uint256",
          "name": "postal_code",
          "type": "uint256"
        }
      ],
      "payable": false,
      "stateMutability": "view",
      "type": "function"
    },
    {
      "constant": true,
      "inputs": [
        {
          "internalType": "uint256",
          "name": "",
          "type": "uint256"
        }
      ],
      "name": "propertiesForSale",
      "outputs": [
        {
          "internalType": "uint256",
          "name": "",
          "type": "uint256"
        }
      ],
      "payable": false,
      "stateMutability": "view",
      "type": "function"
    },
    {
      "constant": true,
      "inputs": [
        {
          "internalType": "uint256",
          "name": "",
          "type": "uint256"
        }
      ],
      "name": "propertyPrices",
      "outputs": [
        {
          "internalType": "uint256",
          "name": "",
          "type": "uint256"
        }
      ],
      "payable": false,
      "stateMutability": "view",
      "type": "function"
    },
    {
      "constant": false,
      "inputs": [],
      "name": "renounceOwnership",
      "outputs": [],
      "payable": false,
      "stateMutability": "nonpayable",
      "type": "function"
    },
    {
      "constant": false,
      "inputs": [
        {
          "internalType": "address",
          "name": "from",
          "type": "address"
        },
        {
          "internalType": "address",
          "name": "to",
          "type": "address"
        },
        {
          "internalType": "uint256",
          "name": "tokenId",
          "type": "uint256"
        }
      ],
      "name": "safeTransferFrom",
      "outputs": [],
      "payable": false,
      "stateMutability": "nonpayable",
      "type": "function"
    },
    {
      "constant": false,
      "inputs": [
        {
          "internalType": "address",
          "name": "from",
          "type": "address"
        },
        {
          "internalType": "address",
          "name": "to",
          "type": "address"
        },
        {
          "internalType": "uint256",
          "name": "tokenId",
          "type": "uint256"
        },
        {
          "internalType": "bytes",
          "name": "_data",
          "type": "bytes"
        }
      ],
      "name": "safeTransferFrom",
      "outputs": [],
      "payable": false,
      "stateMutability": "nonpayable",
      "type": "function"
    },
    {
      "constant": false,
      "inputs": [
        {
          "internalType": "address",
          "name": "to",
          "type": "address"
        },
        {
          "internalType": "bool",
          "name": "approved",
          "type": "bool"
        }
      ],
      "name": "setApprovalForAll",
      "outputs": [],
      "payable": false,
      "stateMutability": "nonpayable",
      "type": "function"
    },
    {
      "constant": true,
      "inputs": [
        {
          "internalType": "bytes4",
          "name": "interfaceId",
          "type": "bytes4"
        }
      ],
      "name": "supportsInterface",
      "outputs": [
        {
          "internalType": "bool",
          "name": "",
          "type": "bool"
        }
      ],
      "payable": false,
      "stateMutability": "view",
      "type": "function"
    },
    {
      "constant": true,
      "inputs": [],
      "name": "symbol",
      "outputs": [
        {
          "internalType": "string",
          "name": "",
          "type": "string"
        }
      ],
      "payable": false,
      "stateMutability": "view",
      "type": "function"
    },
    {
      "constant": true,
      "inputs": [
        {
          "internalType": "uint256",
          "name": "index",
          "type": "uint256"
        }
      ],
      "name": "tokenByIndex",
      "outputs": [
        {
          "internalType": "uint256",
          "name": "",
          "type": "uint256"
        }
      ],
      "payable": false,
      "stateMutability": "view",
      "type": "function"
    },
    {
      "constant": true,
      "inputs": [
        {
          "internalType": "address",
          "name": "owner",
          "type": "address"
        },
        {
          "internalType": "uint256",
          "name": "index",
          "type": "uint256"
        }
      ],
      "name": "tokenOfOwnerByIndex",
      "outputs": [
        {
          "internalType": "uint256",
          "name": "",
          "type": "uint256"
        }
      ],
      "payable": false,
      "stateMutability": "view",
      "type": "function"
    },
    {
      "constant": true,
      "inputs": [
        {
          "internalType": "uint256",
          "name": "tokenId",
          "type": "uint256"
        }
      ],
      "name": "tokenURI",
      "outputs": [
        {
          "internalType": "string",
          "name": "",
          "type": "string"
        }
      ],
      "payable": false,
      "stateMutability": "view",
      "type": "function"
    },
    {
      "constant": true,
      "inputs": [],
      "name": "totalSupply",
      "outputs": [
        {
          "internalType": "uint256",
          "name": "",
          "type": "uint256"
        }
      ],
      "payable": false,
      "stateMutability": "view",
      "type": "function"
    },
    {
      "constant": false,
      "inputs": [
        {
          "internalType": "address",
          "name": "from",
          "type": "address"
        },
        {
          "internalType": "address",
          "name": "to",
          "type": "address"
        },
        {
          "internalType": "uint256",
          "name": "tokenId",
          "type": "uint256"
        }
      ],
      "name": "transferFrom",
      "outputs": [],
      "payable": false,
      "stateMutability": "nonpayable",
      "type": "function"
    },
    {
      "constant": false,
      "inputs": [
        {
          "internalType": "address",
          "name": "newOwner",
          "type": "address"
        }
      ],
      "name": "transferOwnership",
      "outputs": [],
      "payable": false,
      "stateMutability": "nonpayable",
      "type": "function"
    },
    {
      "constant": false,
      "inputs": [
        {
          "internalType": "string",
          "name": "_property_name",
          "type": "string"
        },
        {
          "internalType": "string",
          "name": "_property_address",
          "type": "string"
        },
        {
          "internalType": "string",
          "name": "_city",
          "type": "string"
        },
        {
          "internalType": "string",
          "name": "_state",
          "type": "string"
        },
        {
          "internalType": "uint256",
          "name": "_postal_code",
          "type": "uint256"
        },
        {
          "internalType": "uint256",
          "name": "_price",
          "type": "uint256"
        },
        {
          "internalType": "address",
          "name": "_owner",
          "type": "address"
        }
      ],
      "name": "mint",
      "outputs": [],
      "payable": false,
      "stateMutability": "nonpayable",
      "type": "function"
    },
    {
      "constant": true,
      "inputs": [],
      "name": "propertiesForSaleN",
      "outputs": [
        {
          "internalType": "uint256",
          "name": "",
          "type": "uint256"
        }
      ],
      "payable": false,
      "stateMutability": "view",
      "type": "function"
    },
    {
      "constant": false,
      "inputs": [
        {
          "internalType": "uint256",
          "name": "_propertyId",
          "type": "uint256"
        },
        {
          "internalType": "address",
          "name": "newOwner",
          "type": "address"
        }
      ],
      "name": "buyProperty",
      "outputs": [],
      "payable": false,
      "stateMutability": "nonpayable",
      "type": "function"
    },
    {
      "constant": false,
      "inputs": [],
      "name": "withdrawBalance",
      "outputs": [],
      "payable": false,
      "stateMutability": "nonpayable",
      "type": "function"
    },
    {
      "constant": false,
      "inputs": [],
      "name": "transferMoney",
      "outputs": [],
      "payable": true,
      "stateMutability": "payable",
      "type": "function"
    },
    {
      "constant": false,
      "inputs": [
        {
          "internalType": "address",
          "name": "add",
          "type": "address"
        }
      ],
      "name": "tokensOfOwner",
      "outputs": [
        {
          "internalType": "uint256[]",
          "name": "",
          "type": "uint256[]"
        }
      ],
      "payable": false,
      "stateMutability": "nonpayable",
      "type": "function"
    }
  ],
  "bytecode": "0x60806040523480156200001157600080fd5b506040518060400160405280600881526020017f50726f70657274790000000000000000000000000000000000000000000000008152506040518060400160405280600881526020017f50524f50455254590000000000000000000000000000000000000000000000008152508181620000986301ffc9a760e01b620001cd60201b60201c565b620000b06380ac58cd60e01b620001cd60201b60201c565b620000c863780e9d6360e01b620001cd60201b60201c565b8160099080519060200190620000e0929190620002de565b5080600a9080519060200190620000f9929190620002de565b5062000112635b5e139f60e01b620001cd60201b60201c565b50505050600062000128620002d660201b60201c565b905080600c60006101000a81548173ffffffffffffffffffffffffffffffffffffffff021916908373ffffffffffffffffffffffffffffffffffffffff1602179055508073ffffffffffffffffffffffffffffffffffffffff16600073ffffffffffffffffffffffffffffffffffffffff167f8be0079c531659141344cd1fd0a4f28419497f9722a3daafe3b4186f6b6457e060405160405180910390a3506200038d565b63ffffffff60e01b817bffffffffffffffffffffffffffffffffffffffffffffffffffffffff191614156200026a576040517f08c379a000000000000000000000000000000000000000000000000000000000815260040180806020018281038252601c8152602001807f4552433136353a20696e76616c696420696e746572666163652069640000000081525060200191505060405180910390fd5b6001600080837bffffffffffffffffffffffffffffffffffffffffffffffffffffffff19167bffffffffffffffffffffffffffffffffffffffffffffffffffffffff1916815260200190815260200160002060006101000a81548160ff02191690831515021790555050565b600033905090565b828054600181600116156101000203166002900490600052602060002090601f016020900481019282601f106200032157805160ff191683800117855562000352565b8280016001018555821562000352579182015b828111156200035157825182559160200191906001019062000334565b5b50905062000361919062000365565b5090565b6200038a91905b80821115620003865760008160009055506001016200036c565b5090565b90565b61396f806200039d6000396000f3fe6080604052600436106101d85760003560e01c80636cee6d77116101025780639e92a69411610095578063e450cd0311610064578063e450cd0314610c6d578063e985e9c514610f2e578063f2fde38b14610fb7578063f7b1080814611008576101d8565b80639e92a694146109ef578063a22cb46514610a4a578063b88d4fde14610aa7578063c87b56dd14610bb9576101d8565b80638da5cb5b116100d15780638da5cb5b1461088a5780638f32d59b146108e157806392f8eb941461091057806395d89b411461095f576101d8565b80636cee6d771461075e57806370a0823114610768578063715018a6146107cd5780638462151c146107e4576101d8565b806323b872dd1161017a5780634f6ccce7116101495780634f6ccce71461062e5780635fd8c7101461067d5780636352211e146106945780636af562e81461070f576101d8565b806323b872dd1461045a57806328b60031146104d55780632f745c591461054457806342842e0e146105b3576101d8565b806306fdde03116101b657806306fdde03146102c9578063081812fc14610359578063095ea7b3146103d457806318160ddd1461042f576101d8565b80630194b7a4146101dd57806301ffc9a71461020857806302024fd81461027a575b600080fd5b3480156101e957600080fd5b506101f2611207565b6040518082815260200191505060405180910390f35b34801561021457600080fd5b506102606004803603602081101561022b57600080fd5b8101908080357bffffffffffffffffffffffffffffffffffffffffffffffffffffffff19169060200190929190505050611214565b604051808215151515815260200191505060405180910390f35b34801561028657600080fd5b506102b36004803603602081101561029d57600080fd5b810190808035906020019092919050505061127b565b6040518082815260200191505060405180910390f35b3480156102d557600080fd5b506102de611293565b6040518080602001828103825283818151815260200191508051906020019080838360005b8381101561031e578082015181840152602081019050610303565b50505050905090810190601f16801561034b5780820380516001836020036101000a031916815260200191505b509250505060405180910390f35b34801561036557600080fd5b506103926004803603602081101561037c57600080fd5b8101908080359060200190929190505050611335565b604051808273ffffffffffffffffffffffffffffffffffffffff1673ffffffffffffffffffffffffffffffffffffffff16815260200191505060405180910390f35b3480156103e057600080fd5b5061042d600480360360408110156103f757600080fd5b81019080803573ffffffffffffffffffffffffffffffffffffffff169060200190929190803590602001909291905050506113d0565b005b34801561043b57600080fd5b506104446115a9565b6040518082815260200191505060405180910390f35b34801561046657600080fd5b506104d36004803603606081101561047d57600080fd5b81019080803573ffffffffffffffffffffffffffffffffffffffff169060200190929190803573ffffffffffffffffffffffffffffffffffffffff169060200190929190803590602001909291905050506115b6565b005b3480156104e157600080fd5b5061052e600480360360408110156104f857600080fd5b81019080803573ffffffffffffffffffffffffffffffffffffffff16906020019092919080359060200190929190505050611625565b6040518082815260200191505060405180910390f35b34801561055057600080fd5b5061059d6004803603604081101561056757600080fd5b81019080803573ffffffffffffffffffffffffffffffffffffffff16906020019092919080359060200190929190505050611653565b6040518082815260200191505060405180910390f35b3480156105bf57600080fd5b5061062c600480360360608110156105d657600080fd5b81019080803573ffffffffffffffffffffffffffffffffffffffff169060200190929190803573ffffffffffffffffffffffffffffffffffffffff16906020019092919080359060200190929190505050611712565b005b34801561063a57600080fd5b506106676004803603602081101561065157600080fd5b8101908080359060200190929190505050611732565b6040518082815260200191505060405180910390f35b34801561068957600080fd5b506106926117b2565b005b3480156106a057600080fd5b506106cd600480360360208110156106b757600080fd5b810190808035906020019092919050505061188c565b604051808273ffffffffffffffffffffffffffffffffffffffff1673ffffffffffffffffffffffffffffffffffffffff16815260200191505060405180910390f35b34801561071b57600080fd5b506107486004803603602081101561073257600080fd5b8101908080359060200190929190505050611954565b6040518082815260200191505060405180910390f35b610766611975565b005b34801561077457600080fd5b506107b76004803603602081101561078b57600080fd5b81019080803573ffffffffffffffffffffffffffffffffffffffff1690602001909291905050506119d8565b6040518082815260200191505060405180910390f35b3480156107d957600080fd5b506107e2611aad565b005b3480156107f057600080fd5b506108336004803603602081101561080757600080fd5b81019080803573ffffffffffffffffffffffffffffffffffffffff169060200190929190505050611be8565b6040518080602001828103825283818151815260200191508051906020019060200280838360005b8381101561087657808201518184015260208101905061085b565b505050509050019250505060405180910390f35b34801561089657600080fd5b5061089f611c7f565b604051808273ffffffffffffffffffffffffffffffffffffffff1673ffffffffffffffffffffffffffffffffffffffff16815260200191505060405180910390f35b3480156108ed57600080fd5b506108f6611ca9565b604051808215151515815260200191505060405180910390f35b34801561091c57600080fd5b506109496004803603602081101561093357600080fd5b8101908080359060200190929190505050611d08565b6040518082815260200191505060405180910390f35b34801561096b57600080fd5b50610974611d20565b6040518080602001828103825283818151815260200191508051906020019080838360005b838110156109b4578082015181840152602081019050610999565b50505050905090810190601f1680156109e15780820380516001836020036101000a031916815260200191505b509250505060405180910390f35b3480156109fb57600080fd5b50610a4860048036036040811015610a1257600080fd5b8101908080359060200190929190803573ffffffffffffffffffffffffffffffffffffffff169060200190929190505050611dc2565b005b348015610a5657600080fd5b50610aa560048036036040811015610a6d57600080fd5b81019080803573ffffffffffffffffffffffffffffffffffffffff169060200190929190803515159060200190929190505050611f75565b005b348015610ab357600080fd5b50610bb760048036036080811015610aca57600080fd5b81019080803573ffffffffffffffffffffffffffffffffffffffff169060200190929190803573ffffffffffffffffffffffffffffffffffffffff1690602001909291908035906020019092919080359060200190640100000000811115610b3157600080fd5b820183602082011115610b4357600080fd5b80359060200191846001830284011164010000000083111715610b6557600080fd5b91908080601f016020809104026020016040519081016040528093929190818152602001838380828437600081840152601f19601f820116905080830192505050505050509192919290505050612118565b005b348015610bc557600080fd5b50610bf260048036036020811015610bdc57600080fd5b810190808035906020019092919050505061218a565b6040518080602001828103825283818151815260200191508051906020019080838360005b83811015610c32578082015181840152602081019050610c17565b50505050905090810190601f168015610c5f5780820380516001836020036101000a031916815260200191505b509250505060405180910390f35b348015610c7957600080fd5b50610f2c600480360360e0811015610c9057600080fd5b8101908080359060200190640100000000811115610cad57600080fd5b820183602082011115610cbf57600080fd5b80359060200191846001830284011164010000000083111715610ce157600080fd5b91908080601f016020809104026020016040519081016040528093929190818152602001838380828437600081840152601f19601f82011690508083019250505050505050919291929080359060200190640100000000811115610d4457600080fd5b820183602082011115610d5657600080fd5b80359060200191846001830284011164010000000083111715610d7857600080fd5b91908080601f016020809104026020016040519081016040528093929190818152602001838380828437600081840152601f19601f82011690508083019250505050505050919291929080359060200190640100000000811115610ddb57600080fd5b820183602082011115610ded57600080fd5b80359060200191846001830284011164010000000083111715610e0f57600080fd5b91908080601f016020809104026020016040519081016040528093929190818152602001838380828437600081840152601f19601f82011690508083019250505050505050919291929080359060200190640100000000811115610e7257600080fd5b820183602082011115610e8457600080fd5b80359060200191846001830284011164010000000083111715610ea657600080fd5b91908080601f016020809104026020016040519081016040528093929190818152602001838380828437600081840152601f19601f8201169050808301925050505050505091929192908035906020019092919080359060200190929190803573ffffffffffffffffffffffffffffffffffffffff16906020019092919050505061229d565b005b348015610f3a57600080fd5b50610f9d60048036036040811015610f5157600080fd5b81019080803573ffffffffffffffffffffffffffffffffffffffff169060200190929190803573ffffffffffffffffffffffffffffffffffffffff169060200190929190505050612476565b604051808215151515815260200191505060405180910390f35b348015610fc357600080fd5b5061100660048036036020811015610fda57600080fd5b81019080803573ffffffffffffffffffffffffffffffffffffffff16906020019092919050505061250a565b005b34801561101457600080fd5b506110416004803603602081101561102b57600080fd5b8101908080359060200190929190505050612590565b604051808060200180602001806020018060200186815260200185810385528a818151815260200191508051906020019080838360005b83811015611093578082015181840152602081019050611078565b50505050905090810190601f1680156110c05780820380516001836020036101000a031916815260200191505b50858103845289818151815260200191508051906020019080838360005b838110156110f95780820151818401526020810190506110de565b50505050905090810190601f1680156111265780820380516001836020036101000a031916815260200191505b50858103835288818151815260200191508051906020019080838360005b8381101561115f578082015181840152602081019050611144565b50505050905090810190601f16801561118c5780820380516001836020036101000a031916815260200191505b50858103825287818151815260200191508051906020019080838360005b838110156111c55780820151818401526020810190506111aa565b50505050905090810190601f1680156111f25780820380516001836020036101000a031916815260200191505b50995050505050505050505060405180910390f35b6000601180549050905090565b6000806000837bffffffffffffffffffffffffffffffffffffffffffffffffffffffff19167bffffffffffffffffffffffffffffffffffffffffffffffffffffffff1916815260200190815260200160002060009054906101000a900460ff169050919050565b60106020528060005260406000206000915090505481565b606060098054600181600116156101000203166002900480601f01602080910402602001604051908101604052809291908181526020018280546001816001161561010002031660029004801561132b5780601f106113005761010080835404028352916020019161132b565b820191906000526020600020905b81548152906001019060200180831161130e57829003601f168201915b5050505050905090565b600061134082612833565b611395576040517f08c379a000000000000000000000000000000000000000000000000000000000815260040180806020018281038252602c815260200180613839602c913960400191505060405180910390fd5b6002600083815260200190815260200160002060009054906101000a900473ffffffffffffffffffffffffffffffffffffffff169050919050565b60006113db8261188c565b90508073ffffffffffffffffffffffffffffffffffffffff168373ffffffffffffffffffffffffffffffffffffffff161415611462576040517f08c379a00000000000000000000000000000000000000000000000000000000081526004018080602001828103825260218152602001806138bd6021913960400191505060405180910390fd5b8073ffffffffffffffffffffffffffffffffffffffff163373ffffffffffffffffffffffffffffffffffffffff1614806114a257506114a18133612476565b5b6114f7576040517f08c379a00000000000000000000000000000000000000000000000000000000081526004018080602001828103825260388152602001806137ae6038913960400191505060405180910390fd5b826002600084815260200190815260200160002060006101000a81548173ffffffffffffffffffffffffffffffffffffffff021916908373ffffffffffffffffffffffffffffffffffffffff160217905550818373ffffffffffffffffffffffffffffffffffffffff168273ffffffffffffffffffffffffffffffffffffffff167f8c5be1e5ebec7d5bd14f71427d1e84f3dd0314c0f7b2291e5b200ac8c7c3b92560405160405180910390a4505050565b6000600780549050905090565b6115c033826128a5565b611615576040517f08c379a00000000000000000000000000000000000000000000000000000000081526004018080602001828103825260318152602001806138de6031913960400191505060405180910390fd5b611620838383612999565b505050565b600d602052816000526040600020818154811061163e57fe5b90600052602060002001600091509150505481565b600061165e836119d8565b82106116b5576040517f08c379a000000000000000000000000000000000000000000000000000000000815260040180806020018281038252602b8152602001806136db602b913960400191505060405180910390fd5b600560008473ffffffffffffffffffffffffffffffffffffffff1673ffffffffffffffffffffffffffffffffffffffff16815260200190815260200160002082815481106116ff57fe5b9060005260206000200154905092915050565b61172d83838360405180602001604052806000815250612118565b505050565b600061173c6115a9565b8210611793576040517f08c379a000000000000000000000000000000000000000000000000000000000815260040180806020018281038252602c81526020018061390f602c913960400191505060405180910390fd5b600782815481106117a057fe5b90600052602060002001549050919050565b6117ba611ca9565b61182c576040517f08c379a00000000000000000000000000000000000000000000000000000000081526004018080602001828103825260208152602001807f4f776e61626c653a2063616c6c6572206973206e6f7420746865206f776e657281525060200191505060405180910390fd5b3373ffffffffffffffffffffffffffffffffffffffff166108fc3073ffffffffffffffffffffffffffffffffffffffff16319081150290604051600060405180830381858888f19350505050158015611889573d6000803e3d6000fd5b50565b6000806001600084815260200190815260200160002060009054906101000a900473ffffffffffffffffffffffffffffffffffffffff169050600073ffffffffffffffffffffffffffffffffffffffff168173ffffffffffffffffffffffffffffffffffffffff16141561194b576040517f08c379a00000000000000000000000000000000000000000000000000000000081526004018080602001828103825260298152602001806138106029913960400191505060405180910390fd5b80915050919050565b6011818154811061196157fe5b906000526020600020016000915090505481565b60007384753f397f925aba6d00222c51e8f6c6b81359e590508073ffffffffffffffffffffffffffffffffffffffff166108fc349081150290604051600060405180830381858888f193505050501580156119d4573d6000803e3d6000fd5b5050565b60008073ffffffffffffffffffffffffffffffffffffffff168273ffffffffffffffffffffffffffffffffffffffff161415611a5f576040517f08c379a000000000000000000000000000000000000000000000000000000000815260040180806020018281038252602a8152602001806137e6602a913960400191505060405180910390fd5b611aa6600360008473ffffffffffffffffffffffffffffffffffffffff1673ffffffffffffffffffffffffffffffffffffffff1681526020019081526020016000206129bd565b9050919050565b611ab5611ca9565b611b27576040517f08c379a00000000000000000000000000000000000000000000000000000000081526004018080602001828103825260208152602001807f4f776e61626c653a2063616c6c6572206973206e6f7420746865206f776e657281525060200191505060405180910390fd5b600073ffffffffffffffffffffffffffffffffffffffff16600c60009054906101000a900473ffffffffffffffffffffffffffffffffffffffff1673ffffffffffffffffffffffffffffffffffffffff167f8be0079c531659141344cd1fd0a4f28419497f9722a3daafe3b4186f6b6457e060405160405180910390a36000600c60006101000a81548173ffffffffffffffffffffffffffffffffffffffff021916908373ffffffffffffffffffffffffffffffffffffffff160217905550565b6060600d60008373ffffffffffffffffffffffffffffffffffffffff1673ffffffffffffffffffffffffffffffffffffffff168152602001908152602001600020805480602002602001604051908101604052809291908181526020018280548015611c7357602002820191906000526020600020905b815481526020019060010190808311611c5f575b50505050509050919050565b6000600c60009054906101000a900473ffffffffffffffffffffffffffffffffffffffff16905090565b6000600c60009054906101000a900473ffffffffffffffffffffffffffffffffffffffff1673ffffffffffffffffffffffffffffffffffffffff16611cec6129cb565b73ffffffffffffffffffffffffffffffffffffffff1614905090565b60126020528060005260406000206000915090505481565b6060600a8054600181600116156101000203166002900480601f016020809104026020016040519081016040528092919081815260200182805460018160011615610100020316600290048015611db85780601f10611d8d57610100808354040283529160200191611db8565b820191906000526020600020905b815481529060010190602001808311611d9b57829003601f168201915b5050505050905090565b3373ffffffffffffffffffffffffffffffffffffffff16611de28361188c565b73ffffffffffffffffffffffffffffffffffffffff1614611e6b576040517f08c379a00000000000000000000000000000000000000000000000000000000081526004018080602001828103825260158152602001807f53656e646572206e6f7420617574686f72697a6564000000000000000000000081525060200191505060405180910390fd5b611e7581836113d0565b611e803382846115b6565b600d60008273ffffffffffffffffffffffffffffffffffffffff1673ffffffffffffffffffffffffffffffffffffffff1681526020019081526020016000208290806001815401808255809150509060018203906000526020600020016000909192909190915055506000601160016011805490500381548110611f0057fe5b906000526020600020015490506000601260008581526020019081526020016000205490508160118281548110611f3357fe5b90600052602060002001819055508060126000848152602001908152602001600020819055506011805480919060019003611f6e91906135da565b5050505050565b3373ffffffffffffffffffffffffffffffffffffffff168273ffffffffffffffffffffffffffffffffffffffff161415612017576040517f08c379a00000000000000000000000000000000000000000000000000000000081526004018080602001828103825260198152602001807f4552433732313a20617070726f766520746f2063616c6c65720000000000000081525060200191505060405180910390fd5b80600460003373ffffffffffffffffffffffffffffffffffffffff1673ffffffffffffffffffffffffffffffffffffffff16815260200190815260200160002060008473ffffffffffffffffffffffffffffffffffffffff1673ffffffffffffffffffffffffffffffffffffffff16815260200190815260200160002060006101000a81548160ff0219169083151502179055508173ffffffffffffffffffffffffffffffffffffffff163373ffffffffffffffffffffffffffffffffffffffff167f17307eab39ab6107e8899845ad3d59bd9653f200f220920489ca2b5937696c3183604051808215151515815260200191505060405180910390a35050565b6121238484846115b6565b61212f848484846129d3565b612184576040517f08c379a00000000000000000000000000000000000000000000000000000000081526004018080602001828103825260328152602001806137066032913960400191505060405180910390fd5b50505050565b606061219582612833565b6121ea576040517f08c379a000000000000000000000000000000000000000000000000000000000815260040180806020018281038252602f81526020018061388e602f913960400191505060405180910390fd5b600b60008381526020019081526020016000208054600181600116156101000203166002900480601f0160208091040260200160405190810160405280929190818152602001828054600181600116156101000203166002900480156122915780601f1061226657610100808354040283529160200191612291565b820191906000526020600020905b81548152906001019060200180831161227457829003601f168201915b50505050509050919050565b6122a5611ca9565b612317576040517f08c379a00000000000000000000000000000000000000000000000000000000081526004018080602001828103825260208152602001807f4f776e61626c653a2063616c6c6572206973206e6f7420746865206f776e657281525060200191505060405180910390fd5b61231f613606565b6040518060a0016040528089815260200188815260200187815260200186815260200185815250905060006001600f83908060018154018082558091505090600182039060005260206000209060050201600090919290919091506000820151816000019080519060200190612396929190613635565b5060208201518160010190805190602001906123b3929190613635565b5060408201518160020190805190602001906123d0929190613635565b5060608201518160030190805190602001906123ed929190613635565b506080820151816004015550500390508360106000838152602001908152602001600020819055506011819080600181540180825580915050906001820390600052602060002001600090919290919091505550600160118054905003601260008381526020019081526020016000208190555061246b8382612bbc565b505050505050505050565b6000600460008473ffffffffffffffffffffffffffffffffffffffff1673ffffffffffffffffffffffffffffffffffffffff16815260200190815260200160002060008373ffffffffffffffffffffffffffffffffffffffff1673ffffffffffffffffffffffffffffffffffffffff16815260200190815260200160002060009054906101000a900460ff16905092915050565b612512611ca9565b612584576040517f08c379a00000000000000000000000000000000000000000000000000000000081526004018080602001828103825260208152602001807f4f776e61626c653a2063616c6c6572206973206e6f7420746865206f776e657281525060200191505060405180910390fd5b61258d81612bdd565b50565b600f818154811061259d57fe5b9060005260206000209060050201600091509050806000018054600181600116156101000203166002900480601f0160208091040260200160405190810160405280929190818152602001828054600181600116156101000203166002900480156126495780601f1061261e57610100808354040283529160200191612649565b820191906000526020600020905b81548152906001019060200180831161262c57829003601f168201915b505050505090806001018054600181600116156101000203166002900480601f0160208091040260200160405190810160405280929190818152602001828054600181600116156101000203166002900480156126e75780601f106126bc576101008083540402835291602001916126e7565b820191906000526020600020905b8154815290600101906020018083116126ca57829003601f168201915b505050505090806002018054600181600116156101000203166002900480601f0160208091040260200160405190810160405280929190818152602001828054600181600116156101000203166002900480156127855780601f1061275a57610100808354040283529160200191612785565b820191906000526020600020905b81548152906001019060200180831161276857829003601f168201915b505050505090806003018054600181600116156101000203166002900480601f0160208091040260200160405190810160405280929190818152602001828054600181600116156101000203166002900480156128235780601f106127f857610100808354040283529160200191612823565b820191906000526020600020905b81548152906001019060200180831161280657829003601f168201915b5050505050908060040154905085565b6000806001600084815260200190815260200160002060009054906101000a900473ffffffffffffffffffffffffffffffffffffffff169050600073ffffffffffffffffffffffffffffffffffffffff168173ffffffffffffffffffffffffffffffffffffffff161415915050919050565b60006128b082612833565b612905576040517f08c379a000000000000000000000000000000000000000000000000000000000815260040180806020018281038252602c815260200180613782602c913960400191505060405180910390fd5b60006129108361188c565b90508073ffffffffffffffffffffffffffffffffffffffff168473ffffffffffffffffffffffffffffffffffffffff16148061297f57508373ffffffffffffffffffffffffffffffffffffffff1661296784611335565b73ffffffffffffffffffffffffffffffffffffffff16145b80612990575061298f8185612476565b5b91505092915050565b6129a4838383612d23565b6129ae8382612f7e565b6129b8828261311c565b505050565b600081600001549050919050565b600033905090565b60006129f48473ffffffffffffffffffffffffffffffffffffffff166131e3565b612a015760019050612bb4565b60008473ffffffffffffffffffffffffffffffffffffffff1663150b7a02338887876040518563ffffffff1660e01b8152600401808573ffffffffffffffffffffffffffffffffffffffff1673ffffffffffffffffffffffffffffffffffffffff1681526020018473ffffffffffffffffffffffffffffffffffffffff1673ffffffffffffffffffffffffffffffffffffffff16815260200183815260200180602001828103825283818151815260200191508051906020019080838360005b83811015612adc578082015181840152602081019050612ac1565b50505050905090810190601f168015612b095780820380516001836020036101000a031916815260200191505b5095505050505050602060405180830381600087803b158015612b2b57600080fd5b505af1158015612b3f573d6000803e3d6000fd5b505050506040513d6020811015612b5557600080fd5b8101908080519060200190929190505050905063150b7a0260e01b7bffffffffffffffffffffffffffffffffffffffffffffffffffffffff1916817bffffffffffffffffffffffffffffffffffffffffffffffffffffffff1916149150505b949350505050565b612bc682826131f6565b612bd0828261311c565b612bd98161340e565b5050565b600073ffffffffffffffffffffffffffffffffffffffff168173ffffffffffffffffffffffffffffffffffffffff161415612c63576040517f08c379a00000000000000000000000000000000000000000000000000000000081526004018080602001828103825260268152602001806137386026913960400191505060405180910390fd5b8073ffffffffffffffffffffffffffffffffffffffff16600c60009054906101000a900473ffffffffffffffffffffffffffffffffffffffff1673ffffffffffffffffffffffffffffffffffffffff167f8be0079c531659141344cd1fd0a4f28419497f9722a3daafe3b4186f6b6457e060405160405180910390a380600c60006101000a81548173ffffffffffffffffffffffffffffffffffffffff021916908373ffffffffffffffffffffffffffffffffffffffff16021790555050565b8273ffffffffffffffffffffffffffffffffffffffff16612d438261188c565b73ffffffffffffffffffffffffffffffffffffffff1614612daf576040517f08c379a00000000000000000000000000000000000000000000000000000000081526004018080602001828103825260298152602001806138656029913960400191505060405180910390fd5b600073ffffffffffffffffffffffffffffffffffffffff168273ffffffffffffffffffffffffffffffffffffffff161415612e35576040517f08c379a000000000000000000000000000000000000000000000000000000000815260040180806020018281038252602481526020018061375e6024913960400191505060405180910390fd5b612e3e8161345a565b612e85600360008573ffffffffffffffffffffffffffffffffffffffff1673ffffffffffffffffffffffffffffffffffffffff168152602001908152602001600020613518565b612ecc600360008473ffffffffffffffffffffffffffffffffffffffff1673ffffffffffffffffffffffffffffffffffffffff16815260200190815260200160002061353b565b816001600083815260200190815260200160002060006101000a81548173ffffffffffffffffffffffffffffffffffffffff021916908373ffffffffffffffffffffffffffffffffffffffff160217905550808273ffffffffffffffffffffffffffffffffffffffff168473ffffffffffffffffffffffffffffffffffffffff167fddf252ad1be2c89b69c2b068fc378daa952ba7f163c4a11628f55a4df523b3ef60405160405180910390a4505050565b6000612fd66001600560008673ffffffffffffffffffffffffffffffffffffffff1673ffffffffffffffffffffffffffffffffffffffff1681526020019081526020016000208054905061355190919063ffffffff16565b90506000600660008481526020019081526020016000205490508181146130c3576000600560008673ffffffffffffffffffffffffffffffffffffffff1673ffffffffffffffffffffffffffffffffffffffff168152602001908152602001600020838154811061304357fe5b9060005260206000200154905080600560008773ffffffffffffffffffffffffffffffffffffffff1673ffffffffffffffffffffffffffffffffffffffff168152602001908152602001600020838154811061309b57fe5b9060005260206000200181905550816006600083815260200190815260200160002081905550505b600560008573ffffffffffffffffffffffffffffffffffffffff1673ffffffffffffffffffffffffffffffffffffffff16815260200190815260200160002080548091906001900361311591906135da565b5050505050565b600560008373ffffffffffffffffffffffffffffffffffffffff1673ffffffffffffffffffffffffffffffffffffffff168152602001908152602001600020805490506006600083815260200190815260200160002081905550600560008373ffffffffffffffffffffffffffffffffffffffff1673ffffffffffffffffffffffffffffffffffffffff1681526020019081526020016000208190806001815401808255809150509060018203906000526020600020016000909192909190915055505050565b600080823b905060008111915050919050565b600073ffffffffffffffffffffffffffffffffffffffff168273ffffffffffffffffffffffffffffffffffffffff161415613299576040517f08c379a00000000000000000000000000000000000000000000000000000000081526004018080602001828103825260208152602001807f4552433732313a206d696e7420746f20746865207a65726f206164647265737381525060200191505060405180910390fd5b6132a281612833565b15613315576040517f08c379a000000000000000000000000000000000000000000000000000000000815260040180806020018281038252601c8152602001807f4552433732313a20746f6b656e20616c7265616479206d696e7465640000000081525060200191505060405180910390fd5b816001600083815260200190815260200160002060006101000a81548173ffffffffffffffffffffffffffffffffffffffff021916908373ffffffffffffffffffffffffffffffffffffffff1602179055506133ae600360008473ffffffffffffffffffffffffffffffffffffffff1673ffffffffffffffffffffffffffffffffffffffff16815260200190815260200160002061353b565b808273ffffffffffffffffffffffffffffffffffffffff16600073ffffffffffffffffffffffffffffffffffffffff167fddf252ad1be2c89b69c2b068fc378daa952ba7f163c4a11628f55a4df523b3ef60405160405180910390a45050565b6007805490506008600083815260200190815260200160002081905550600781908060018154018082558091505090600182039060005260206000200160009091929091909150555050565b600073ffffffffffffffffffffffffffffffffffffffff166002600083815260200190815260200160002060009054906101000a900473ffffffffffffffffffffffffffffffffffffffff1673ffffffffffffffffffffffffffffffffffffffff16146135155760006002600083815260200190815260200160002060006101000a81548173ffffffffffffffffffffffffffffffffffffffff021916908373ffffffffffffffffffffffffffffffffffffffff1602179055505b50565b6135306001826000015461355190919063ffffffff16565b816000018190555050565b6001816000016000828254019250508190555050565b6000828211156135c9576040517f08c379a000000000000000000000000000000000000000000000000000000000815260040180806020018281038252601e8152602001807f536166654d6174683a207375627472616374696f6e206f766572666c6f77000081525060200191505060405180910390fd5b600082840390508091505092915050565b8154818355818111156136015781836000526020600020918201910161360091906136b5565b5b505050565b6040518060a0016040528060608152602001606081526020016060815260200160608152602001600081525090565b828054600181600116156101000203166002900490600052602060002090601f016020900481019282601f1061367657805160ff19168380011785556136a4565b828001600101855582156136a4579182015b828111156136a3578251825591602001919060010190613688565b5b5090506136b191906136b5565b5090565b6136d791905b808211156136d35760008160009055506001016136bb565b5090565b9056fe455243373231456e756d657261626c653a206f776e657220696e646578206f7574206f6620626f756e64734552433732313a207472616e7366657220746f206e6f6e20455243373231526563656976657220696d706c656d656e7465724f776e61626c653a206e6577206f776e657220697320746865207a65726f20616464726573734552433732313a207472616e7366657220746f20746865207a65726f20616464726573734552433732313a206f70657261746f7220717565727920666f72206e6f6e6578697374656e7420746f6b656e4552433732313a20617070726f76652063616c6c6572206973206e6f74206f776e6572206e6f7220617070726f76656420666f7220616c6c4552433732313a2062616c616e636520717565727920666f7220746865207a65726f20616464726573734552433732313a206f776e657220717565727920666f72206e6f6e6578697374656e7420746f6b656e4552433732313a20617070726f76656420717565727920666f72206e6f6e6578697374656e7420746f6b656e4552433732313a207472616e73666572206f6620746f6b656e2074686174206973206e6f74206f776e4552433732314d657461646174613a2055524920717565727920666f72206e6f6e6578697374656e7420746f6b656e4552433732313a20617070726f76616c20746f2063757272656e74206f776e65724552433732313a207472616e736665722063616c6c6572206973206e6f74206f776e6572206e6f7220617070726f766564455243373231456e756d657261626c653a20676c6f62616c20696e646578206f7574206f6620626f756e6473a265627a7a723158209c372d3258d4047c444bd93698d9781b31ba0aad8f506d18f3c136880fd713ac64736f6c634300050c0032",
  "source": "pragma solidity ^0.5.0;\r\nimport \"./ERC721Full.sol\";\r\n// import 'node_modules/@openzeppelin/contracts/ownership/Ownable.sol';\r\n// import \"https://github.com/OpenZeppelin/openzeppelin-contracts/blob/v2.4.0/contracts/ownership/Ownable.sol\";\r\nimport 'openzeppelin-solidity/contracts/ownership/Ownable.sol';\r\n\r\n\r\n\r\n\r\ncontract PropertyToken is ERC721Full,Ownable {\r\n\r\nstruct Property {\r\n         // IPFS Hash\r\n        string property_name;\r\n        string property_address;\r\n        string city;\r\n        string state;\r\n        uint postal_code;\r\n    }\r\n    mapping (address => uint[]) public ownerTokens;\r\n    // string[] public physical_address;\r\n    // mapping(string => bool) _propertyExists;\r\n    // mapping(uint => address) _propertyIndexToOwner;\r\n    // mapping(string => uint) _propertyToIndex;\r\n    mapping (uint256 => address) internal tokenApprovals;\r\n    Property[] public properties;\r\n    mapping(uint => uint) public propertyPrices;\r\n    uint[] public propertiesForSale;\r\n    mapping(uint => uint) public indexes; //propertyId -> propertiesForSale\r\n\r\n    constructor() ERC721Full(\"Property\",\"PROPERTY\") public    {\r\n    }\r\n\r\n    // function mint(string memory _physical_address) public {\r\n    //     require(!_propertyExists[_physical_address]);\r\n    //     uint _id = physical_address.push(_physical_address);\r\n    //     _mint(msg.sender, _id);\r\n    //     _propertyExists[_physical_address] = true;\r\n    //     _propertyIndexToOwner[_id] = msg.sender;\r\n    //     _propertyToIndex[_physical_address] = _id;\r\n    // }\r\n\r\n    function mint( string memory _property_name,\r\n                  string memory _property_address, string memory _city,\r\n                  string memory _state,uint  _postal_code, uint _price, address _owner) public onlyOwner {\r\n\r\n            Property memory p = Property({\r\n                 property_name : _property_name,\r\n                 property_address : _property_address,\r\n                 city : _city,\r\n                 state : _state,\r\n                 postal_code : _postal_code\r\n            });\r\n            uint propertyId = properties.push(p) - 1;\r\n            propertyPrices[propertyId] = _price;\r\n            propertiesForSale.push(propertyId);\r\n            indexes[propertyId] = propertiesForSale.length - 1;\r\n            // _mint is a function part of ERC721Token that generates the NFT\r\n            // The contract will own the newly minted tokens\r\n            _mint(_owner, propertyId);\r\n    }\r\n\r\n  /// @notice Get number of spaceships for sale\r\n    function propertiesForSaleN() public view returns(uint) {\r\n        return propertiesForSale.length;\r\n    }\r\n\r\n    /// @notice Buy property\r\n    /// @param _propertyId TokenId\r\n\r\n    function buyProperty(uint _propertyId,address newOwner) public {\r\n        // You can only buy the spaceships owned by this contract\r\n        require(ownerOf(_propertyId) == msg.sender,\r\n        \"Sender not authorized\");\r\n        // Value sent should be at least the spaceship price\r\n        // require(msg.value >= propertyPrices[_propertyId],\r\n        // \"Value less than selling price\");\r\n        approve(newOwner, _propertyId);\r\n        // We approve the transfer directly to avoid creating two trx\r\n        // then we send the token to the sender\r\n        // tokenApprovals[_propertyId] = msg.sender;\r\n        transferFrom(msg.sender, newOwner, _propertyId);\r\n        ownerTokens[newOwner].push(_propertyId);\r\n\r\n        // address payable rec = 0x84753F397F925ABA6d00222C51e8F6c6b81359E5;\r\n        // rec.transfer(msg.value);\r\n        // Delete the token from the list of tokens for sale\r\n        uint256 replacer = propertiesForSale[propertiesForSale.length - 1];\r\n        uint256 pos = indexes[_propertyId];\r\n        propertiesForSale[pos] = replacer;\r\n        indexes[replacer] = pos;\r\n        propertiesForSale.length--;\r\n        // uint refund = msg.value - propertyPrices[_propertyId];\r\n        // if (refund > 0)\r\n        //     msg.sender.transfer(refund);\r\n    }\r\n\r\n    /// @notice Withdraw sales balance\r\n    function withdrawBalance() public onlyOwner {\r\n        msg.sender.transfer(address(this).balance);\r\n    }\r\n    \r\n    function transferMoney() public payable  {\r\n        // rec.transfer(msg.value);\r\n        address payable rec = 0x84753F397F925ABA6d00222C51e8F6c6b81359E5;\r\n        rec.transfer(msg.value);\r\n    }\r\n    \r\n    /// @notice Get Metadata URI\r\n    /// \r\n    /// @return IPFS URL of the metadata\r\n    // function tokenURI(uint256 _propertyId) public payable returns (string memory) {\r\n    //     Property storage s = properties[_propertyId];\r\n    //     return strConcat(\"https://ipfs.io/ipfs/\", string(s.metadataHash));\r\n    // }\r\n\r\n    // /// @notice Concatenate strings\r\n    // /// @param _a First string\r\n    // /// @param _b Second string\r\n    // /// @return _a+_b\r\n    // function strConcat(string memory _a, string memory _b)  private returns (string memory) {\r\n    //     bytes memory _ba = bytes(_a);\r\n    //     bytes memory _bb = bytes(_b);\r\n    //     string memory ab = new string(_ba.length + _bb.length);\r\n    //     bytes memory bab = bytes(ab);\r\n    //     uint k = 0;\r\n\r\n    //     for (uint i = 0; i < _ba.length; i++)\r\n    //         bab[k++] = _ba[i];\r\n\r\n    //     for (uint i = 0; i < _bb.length; i++)\r\n    //         bab[k++] = _bb[i];\r\n\r\n    //     return string(bab);\r\n    // }\r\n\r\n    // function transfer(string memory _physical_address,address reciever) public payable returns (address) {\r\n    //     // address a = 0x84753F397F925ABA6d00222C51e8F6c6b81359E5;\r\n    //     // approve(a, 1);\r\n    //     // // _transferFrom(msg.sender, a, 1);\r\n    //     // // _propertyIndexToOwner[1] = a;\r\n    //     uint id = _propertyToIndex[_physical_address];\r\n    //     safeTransferFrom(msg.sender,reciever,id);\r\n    //     // return (msg.sender, balanceOf(msg.sender));\r\n    //     _propertyIndexToOwner[id] = reciever;\r\n    //     // uint256[] memory h = _tokensOfOwner(msg.sender);\r\n    //     return _propertyIndexToOwner[id];\r\n    // }\r\n\r\n    // function tokensOfOwner(address _owner) external view returns(uint256[] memory ownerTokens) {\r\n    //     uint256 tokenCount = balanceOf(_owner);\r\n\r\n    //     if (tokenCount == 0) {\r\n    //         // Return an empty array\r\n    //         return new uint256[](0);\r\n    //     } else {\r\n    //         uint256[] memory result = new uint256[](tokenCount);\r\n    //         uint256 total = totalSupply();\r\n    //         uint256 resultIndex = 0;\r\n\r\n    //         // We count on the fact that all proprty have IDs starting at 1 and increasing\r\n    //         // sequentially up to the count.\r\n    //         uint256 propertyId;\r\n\r\n    //         for (propertyId = 1; propertyId <= total; propertyId++) {\r\n    //             if (_propertyIndexToOwner[propertyId] == _owner) {\r\n    //                 result[resultIndex] = propertyId;\r\n    //                 resultIndex++;\r\n    //             }\r\n    //         }\r\n\r\n    //         return result;\r\n    //     }\r\n    // }\r\n    // function senderAddres() public view returns(uint256) {\r\n    //     uint256 tokenCount = balanceOf(msg.sender);\r\n\r\n    //     return tokenCount;\r\n\r\n    // }\r\n    function tokensOfOwner(address add) public returns(uint[] memory)\r\n    {\r\n     return ownerTokens[add];\r\n    }\r\n\r\n}\r\ncontract Market is Ownable {\r\n\r\n    PropertyToken pt = new PropertyToken();\r\n\r\n    function returnPropertyToken() public returns (address)\r\n    {\r\n        return address(pt);\r\n    }\r\n\r\n    struct Property {\r\n         // IPFS Hash\r\n        string property_name;\r\n        string property_address;\r\n        string city;\r\n        string state;\r\n        uint postal_code;\r\n    }\r\n    Property[] public marketProperties;\r\n\r\n    function tryAdd() public returns (address)\r\n    {\r\n        return msg.sender;\r\n    }\r\n\r\n    function mintPropety( string memory _property_name,\r\n                  string memory _property_address, string memory _city,\r\n                  string memory _state,uint  _postal_code, uint _price) public onlyOwner {\r\n\r\n        pt.mint(_property_name, _property_address, _city, _state, _postal_code, _price, address(this));\r\n    }\r\n    // function propertyForSaleN()  public view returns(uint)\r\n    // {\r\n    //     return pt.propertiesForSaleN();\r\n    // }\r\n    // function ownerOf(uint id) public returns(address)\r\n    // {\r\n    //     return pt.ownerOf(id);\r\n    // }\r\n    // function propertiesForSale(uint id) public returns (uint)\r\n    // {\r\n    //     return pt.propertiesForSale(id);\r\n    // }\r\n    // function getProperties(uint id) public returns(Property memory)\r\n    // {\r\n    //     marketProperties = pt.properties(id);\r\n    // }\r\n    function transferProperty(uint _propertyId) public payable\r\n    {\r\n        // address payable prevOwner = address(uint160(address(pt.ownerOf(_propertyId))));\r\n        // pt.setApproval()\r\n        pt.buyProperty(_propertyId,msg.sender);\r\n        // tokensOfOwner[msg.sender].push(_propertyId);\r\n        // address(this).transfer(msg.value);\r\n    }\r\n}",
  "sourcePath": "E:/Major Project/starter_kit/src/contracts/PropertyToken.sol",
  "compiler": {
    "name": "solc",
    "version": "0.5.12+commit.7709ece9.Emscripten.clang"
  },
  "schemaVersion": "3.0.20",
  "updatedAt": "2020-03-05T19:59:33.336Z",
  "networkType": "ethereum",
  "devdoc": {
    "methods": {
      "approve(address,uint256)": {
        "details": "Approves another address to transfer the given token ID The zero address indicates there is no approved address. There can only be one approved address per token at a given time. Can only be called by the token owner or an approved operator.",
        "params": {
          "to": "address to be approved for the given token ID",
          "tokenId": "uint256 ID of the token to be approved"
        }
      },
      "balanceOf(address)": {
        "details": "Gets the balance of the specified address.",
        "params": {
          "owner": "address to query the balance of"
        },
        "return": "uint256 representing the amount owned by the passed address"
      },
      "buyProperty(uint256,address)": {
        "params": {
          "_propertyId": "TokenId"
        }
      },
      "getApproved(uint256)": {
        "details": "Gets the approved address for a token ID, or zero if no address set Reverts if the token ID does not exist.",
        "params": {
          "tokenId": "uint256 ID of the token to query the approval of"
        },
        "return": "address currently approved for the given token ID"
      },
      "isApprovedForAll(address,address)": {
        "details": "Tells whether an operator is approved by a given owner.",
        "params": {
          "operator": "operator address which you want to query the approval of",
          "owner": "owner address which you want to query the approval of"
        },
        "return": "bool whether the given operator is approved by the given owner"
      },
      "isOwner()": {
        "details": "Returns true if the caller is the current owner."
      },
      "name()": {
        "details": "Gets the token name.",
        "return": "string representing the token name"
      },
      "owner()": {
        "details": "Returns the address of the current owner."
      },
      "ownerOf(uint256)": {
        "details": "Gets the owner of the specified token ID.",
        "params": {
          "tokenId": "uint256 ID of the token to query the owner of"
        },
        "return": "address currently marked as the owner of the given token ID"
      },
      "renounceOwnership()": {
        "details": "Leaves the contract without owner. It will not be possible to call `onlyOwner` functions anymore. Can only be called by the current owner.     * NOTE: Renouncing ownership will leave the contract without an owner, thereby removing any functionality that is only available to the owner."
      },
      "safeTransferFrom(address,address,uint256)": {
        "details": "Safely transfers the ownership of a given token ID to another address If the target address is a contract, it must implement `onERC721Received`, which is called upon a safe transfer, and return the magic value `bytes4(keccak256(\"onERC721Received(address,address,uint256,bytes)\"))`; otherwise, the transfer is reverted. Requires the msg.sender to be the owner, approved, or operator",
        "params": {
          "from": "current owner of the token",
          "to": "address to receive the ownership of the given token ID",
          "tokenId": "uint256 ID of the token to be transferred"
        }
      },
      "safeTransferFrom(address,address,uint256,bytes)": {
        "details": "Safely transfers the ownership of a given token ID to another address If the target address is a contract, it must implement `onERC721Received`, which is called upon a safe transfer, and return the magic value `bytes4(keccak256(\"onERC721Received(address,address,uint256,bytes)\"))`; otherwise, the transfer is reverted. Requires the msg.sender to be the owner, approved, or operator",
        "params": {
          "_data": "bytes data to send along with a safe transfer check",
          "from": "current owner of the token",
          "to": "address to receive the ownership of the given token ID",
          "tokenId": "uint256 ID of the token to be transferred"
        }
      },
      "setApprovalForAll(address,bool)": {
        "details": "Sets or unsets the approval of a given operator An operator is allowed to transfer all tokens of the sender on their behalf.",
        "params": {
          "approved": "representing the status of the approval to be set",
          "to": "operator address to set the approval"
        }
      },
      "supportsInterface(bytes4)": {
        "details": "See `IERC165.supportsInterface`.      * Time complexity O(1), guaranteed to always use less than 30 000 gas."
      },
      "symbol()": {
        "details": "Gets the token symbol.",
        "return": "string representing the token symbol"
      },
      "tokenByIndex(uint256)": {
        "details": "Gets the token ID at a given index of all the tokens in this contract Reverts if the index is greater or equal to the total number of tokens.",
        "params": {
          "index": "uint256 representing the index to be accessed of the tokens list"
        },
        "return": "uint256 token ID at the given index of the tokens list"
      },
      "tokenOfOwnerByIndex(address,uint256)": {
        "details": "Gets the token ID at a given index of the tokens list of the requested owner.",
        "params": {
          "index": "uint256 representing the index to be accessed of the requested tokens list",
          "owner": "address owning the tokens list to be accessed"
        },
        "return": "uint256 token ID at the given index of the tokens list owned by the requested address"
      },
      "tokenURI(uint256)": {
        "details": "Returns an URI for a given token ID. Throws if the token ID does not exist. May return an empty string.",
        "params": {
          "tokenId": "uint256 ID of the token to query"
        }
      },
      "tokensOfOwner(address)": {
        "return": "IPFS URL of the metadata"
      },
      "totalSupply()": {
        "details": "Gets the total amount of tokens stored by the contract.",
        "return": "uint256 representing the total amount of tokens"
      },
      "transferFrom(address,address,uint256)": {
        "details": "Transfers the ownership of a given token ID to another address. Usage of this method is discouraged, use `safeTransferFrom` whenever possible. Requires the msg.sender to be the owner, approved, or operator.",
        "params": {
          "from": "current owner of the token",
          "to": "address to receive the ownership of the given token ID",
          "tokenId": "uint256 ID of the token to be transferred"
        }
      },
      "transferOwnership(address)": {
        "details": "Transfers ownership of the contract to a new account (`newOwner`). Can only be called by the current owner."
      }
    }
  },
  "userdoc": {
    "methods": {
      "buyProperty(uint256,address)": {
        "notice": "Buy property"
      },
      "propertiesForSaleN()": {
        "notice": "Get number of spaceships for sale"
      },
      "tokensOfOwner(address)": {
        "notice": "Get Metadata URI "
      },
      "withdrawBalance()": {
        "notice": "Withdraw sales balance"
      }
    }
  }
}